:020000040000FA
:100000000C9462000C948A000C948A000C948A0070
:100010000C948A000C948A000C948A000C948A0038
:100020000C948A000C948A000C948A000C948A0028
:100030000C948A000C948A000C948A000C948A0018
:100040000C9485040C948A000C94F5040C94CF0451
:100050000C948A000C948A000C948A000C948A00F8
:100060000C948A000C948A000000000023002600F3
:10007000290000000000240027002A0000000000E2
:10008000250028002B0004040404040404040202D4
:100090000202020203030303030301020408102007
:1000A0004080010204081020010204081020000012
:1000B0000008000201000003040700000000000027
:1000C0000000270511241FBECFEFD8E0DEBFCDBF53
:1000D00013E0A0E0B1E0E0E0F0E102C005900D9295
:1000E000A032B107D9F723E0A0E2B3E001C01D922E
:1000F000AE3DB207E1F710E0C2E6D0E004C02197C0
:10010000FE010E94EF07C136D107C9F70E945C05C6
:100110000C94FE070C940000833081F028F48130A9
:1001200099F08230A9F008958730A9F08830C9F09D
:100130008430B1F4809180008F7D03C08091800075
:100140008F7780938000089584B58F7784BD08955C
:1001500084B58F7DFBCF8091B0008F778093B00006
:1001600008958091B0008F7DF9CF1F93CF93DF93D7
:10017000282F30E0F901E255FF4F8491F901E6564E
:10018000FF4FD491F901EA57FF4FC491CC23A9F056
:10019000162F81110E948C00EC2FF0E0EE0FFF1F54
:1001A000E458FF4FA591B4918FB7F894EC911111D9
:1001B00008C0D095DE23DC938FBFDF91CF911F91D4
:1001C0000895DE2BF8CFCF93DF9390E0FC01E65645
:1001D000FF4F24918A579F4FFC0184918823D1F0CF
:1001E00090E0880F991FFC01EE58FF4FA591B49144
:1001F000FC01E458FF4FC591D49161110EC09FB727
:10020000F8948C91E22FE0958E238C932881E22341
:10021000E8839FBFDF91CF9108958FB7F894EC9159
:10022000E22BEC938FBFF6CF3FB7F89480913A035F
:1002300090913B03A0913C03B0913D0326B5A89B50
:1002400005C02F3F19F00196A11DB11D3FBFBA2F68
:10025000A92F982F8827BC01CD01620F711D811D28
:10026000911D42E0660F771F881F991F4A95D1F7AD
:1002700008958F929F92AF92BF92CF92DF92EF92AA
:10028000FF924B015C010E9414016B017C010E94F2
:1002900014016C197D098E099F09683E7340810520
:1002A0009105A8F321E0821A9108A108B10888EE0F
:1002B000C80E83E0D81EE11CF11C81149104A10436
:1002C000B10429F7FF90EF90DF90CF90BF90AF90EF
:1002D0009F908F900895AF92BF92CF92DF92EF924E
:1002E000FF920F931F93CF93DF936C017B018B01E0
:1002F000040F151FEB015E01AE18BF08C017D10730
:1003000059F06991D601ED91FC910190F081E02DB9
:10031000C6010995892B79F7C501DF91CF911F910E
:100320000F91FF90EF90DF90CF90BF90AF90089526
:10033000FC01538D448D252F30E0842F90E0821BEB
:10034000930B541710F0CF96089501970895FC0170
:10035000918D828D981761F0A28DAE0FBF2FB11DC8
:100360005D968C91928D9F5F9F73928F90E0089520
:100370008FEF9FEF0895FC01918D828D981731F0DA
:10038000828DE80FF11D858D90E008958FEF9FEF2E
:100390000895FC01918D228D892F90E0805C9F4F04
:1003A000821B91098F73992708958EE393E00E9431
:1003B000C90121E0892B09F420E0822F089580E013
:1003C00090E0892B29F00E94D50181110C94000046
:1003D0000895FC01A48DA80FB92FB11DA35ABF4FDA
:1003E0002C91848D90E001968F739927848FA68934
:1003F000B7892C93A089B1898C91837080648C9388
:10040000938D848D981306C00288F389E02D808136
:100410008F7D80830895EF92FF920F931F93CF9368
:10042000DF93EC0181E0888F9B8D8C8D98131AC02F
:10043000E889F989808185FF15C09FB7F894EE8916
:10044000FF896083E889F989808183708064808373
:100450009FBF81E090E0DF91CF911F910F91FF90BE
:10046000EF900895F62E0B8D10E00F5F1F4F0F7366
:100470001127E02E8C8D8E110CC00FB607FCFACF21
:10048000E889F989808185FFF5CFCE010E94E901D5
:10049000F1CFEB8DEC0FFD2FF11DE35AFF4FF082F2
:1004A0009FB7F8940B8FEA89FB8980818062CFCF58
:1004B000CF93DF93EC01888D8823B9F0AA89BB899B
:1004C000E889F9898C9185FD03C0808186FD0DC086
:1004D0000FB607FCF7CF8C9185FFF2CF808185FFA7
:1004E000EDCFCE010E94E901E9CFDF91CF910895D0
:1004F0008EBD00000DB407FEFDCF8EB508950F939D
:100500001F93CF93C82F8B01C15038F080E00E9419
:100510007802F80181938F01F7CFCF911F910F914E
:100520000895CF93DF93C5ECD9E02197D9F060E02F
:100530008091DD030E94B50084E40E94780280E08F
:100540000E94780261E08F3F41F48091DD030E94B8
:10055000B50081E0DF91CF9108958091DD030E9485
:10056000B500E3CF80E0F6CFFF920F931F93CF93B8
:10057000DF93D82FF62E8A010E949102882349F139
:1005800060E08091DD030E94B5008F2D0E9478020B
:1005900061E08091DD030E94B5000E9491028823F2
:1005A000C1F060E08091DD030E94B50084E40E9408
:1005B0007802B8018D2F0E947F0261E08091DD03F7
:1005C0000E94B5008C2FDF91CF911F910F91FF906A
:1005D0000895C0E0F7CF0F931F93CF93C82F8B01DF
:1005E000C15030F0F80181918F010E947802F8CF5C
:1005F000CF911F910F910895CF92DF92EF92FF92CA
:100600000F931F93CF93DF9300D000D0CDB7DEB709
:10061000D82EC92E062F7A010E949102182F882306
:10062000C9F081E18983CA820B83DC8260E080911A
:10063000DD030E94B500BE016F5F7F4F84E00E9422
:10064000EB02B701802F0E94EB0261E08091DD0395
:100650000E94B500812F0F900F900F900F90DF91A7
:10066000CF911F910F91FF90EF90DF90CF90089561
:10067000FF920F931F93CF93DF93D82FF62E8A010B
:100680000E949102C82F882389F060E08091DD03E9
:100690000E94B5008F2D0E947802B8018D2F0E9414
:1006A000EB0261E08091DD030E94B5008C2FDF91A9
:1006B000CF911F910F91FF900895CF93DF9300D0BA
:1006C0001F92CDB7DEB719821A821B82AE014F5F2F
:1006D0005F4F60E283E00E9438030F900F900F900D
:1006E000DF91CF910895CF93DF93CDB7DEB72897F1
:1006F0000FB6F894DEBF0FBECDBF82E38887AE0190
:10070000485F5F4F61E082E192E10E94FC0283E07A
:100710008983AE014F5F5F4F65E181E00E9438033E
:100720008091000190910101A091020189839A8337
:10073000AB83AE014F5F5F4F63E080E091E00E94CA
:10074000FC020E945D0387E0E3E0F1E0DE01119628
:1007500001900D928A95E1F7AE014F5F5F4F62E322
:1007600087E00E94380381E028960FB6F894DEBF38
:100770000FBECDBFDF91CF910895FC010190002005
:10078000E9F73197AF01481B590BBC018EE393E0A9
:100790000C946B018F929F92AF92BF920F931F9315
:1007A000CF93DF93CDB7DEB7A1970FB6F894DEBF36
:1007B0000FBECDBF19A2423008F44AE08E010F5D92
:1007C0001F4F842E912CB12CA12CA50194010E94C5
:1007D000CD07E62FB901CA01EA30F4F4E05DD80193
:1007E000EE938D01232B242B252B79F790E080E0CD
:1007F000109719F0CD010E94BD03A1960FB6F89491
:10080000DEBF0FBECDBFDF91CF911F910F91BF9083
:10081000AF909F908F900895E95CE1CFCF93DF93E5
:100820000E94BD03EC0185E992E00E94BD038C0F9C
:100830009D1FDF91CF9108958F929F92AF92BF92AB
:10084000CF92DF92EF92FF920F931F93CF93DF939C
:10085000CDB7DEB729970FB6F894DEBF0FBECDBF78
:10086000AE014F5F5F4F61E089E00E94B402EB8010
:10087000FC80FE24EF24FE2488E992E00E940E040E
:100880008E010F5F1F4F6E018AE0C80ED11CF80168
:1008900061918F0170E090E080E040E10E94CA0326
:1008A0000C151D05A1F78FE992E00E940E04B12CF2
:1008B000A12C40E1C501B7010E94CA0386E992E07C
:1008C0000E940E0440E1C501B7010E94CA0386E9F7
:1008D00092E00E940E0481E0F3E6EF16F4E4FF06D6
:1008E00009F080E029960FB6F894DEBF0FBECDBFA9
:1008F000DF91CF911F910F91FF90EF90DF90CF90FC
:10090000BF90AF909F908F9008951F920F920FB657
:100910000F9211242F933F938F939F93AF93BF9385
:100920008091360390913703A0913803B091390339
:100930003091350323E0230F2D3758F50196A11D83
:10094000B11D209335038093360390933703A09312
:100950003803B093390380913A0390913B03A091FF
:100960003C03B0913D030196A11DB11D80933A0354
:1009700090933B03A0933C03B0933D03BF91AF9191
:100980009F918F913F912F910F900FBE0F901F90CD
:10099000189526E8230F0296A11DB11DD2CF1F92F4
:1009A0000F920FB60F9211242F933F934F935F93A3
:1009B0006F937F938F939F93AF93BF93EF93FF9327
:1009C0008EE393E00E94E901FF91EF91BF91AF9117
:1009D0009F918F917F916F915F914F913F912F9157
:1009E0000F900FBE0F901F9018951F920F920FB689
:1009F0000F9211242F938F939F93EF93FF93E09186
:100A00004E03F0914F038081E0915403F091550320
:100A100082FD1BC09081809157038F5F8F7320915F
:100A20005803821741F0E0915703F0E0E25CFC4F7D
:100A3000958F80935703FF91EF919F918F912F9105
:100A40000F900FBE0F901F9018958081F4CFEEE3AA
:100A5000F3E01382128288EE93E0A0E0B0E084839A
:100A60009583A683B78387E892E09183808385ECA2
:100A700090E09587848784EC90E09787868780EC68
:100A800090E0918B808B81EC90E0938B828B82EC59
:100A900090E0958B848B86EC90E0978B868B118E03
:100AA000128E138E148EEBEDF3E082E0808389E0EA
:100AB00081838AE082830895CF93DF93CDB7DEB739
:100AC000A3970FB6F894DEBF0FBECDBF789484B560
:100AD000826084BD84B5816084BD85B5826085BD3A
:100AE00085B5816085BD80916E00816080936E00C8
:100AF00010928100809181008260809381008091BA
:100B0000810081608093810080918000816080936A
:100B100080008091B10084608093B1008091B0002A
:100B200081608093B00080917A00846080937A0025
:100B300080917A00826080937A0080917A0081604F
:100B400080937A0080917A00806880937A00109276
:100B5000C100E0914E03F0914F0382E08083E09169
:100B60004A03F0914B031082E0914C03F0914D0346
:100B70008FEC808310925603E0915203F09153035F
:100B800086E08083E0915003F09151038081806181
:100B90008083E0915003F0915103808188608083CD
:100BA000E0915003F0915103808180688083E0914F
:100BB0005003F091510380818F7D808361E08091AB
:100BC000DC030E94E30061E08091DC030E94B50039
:100BD00060E08091DB030E94E3001FB7F8948091EE
:100BE0002003811127C0E0E9F0E08491E4EAF0E01D
:100BF0009491E82FF0E0EE0FFF1FEE58FF4FA59104
:100C0000B491EC91E92321F461E08AE00E94B500FF
:100C100061E08AE00E94E3008CB580618CBD8CB5F8
:100C200080648CBD61E08DE00E94E30061E08BE0B8
:100C30000E94E300809120038F5F809320031FBFF9
:100C400061E08091DD030E94E30061E08091DD03BB
:100C50000E94B5008CB58F7D8CBD8CB58C7F81607A
:100C60008CBD8DB58E7F8DBD8CB5837F8CBD87E0AF
:100C7000EAE0F1E08E010F5F1F4FD80101900D9265
:100C80008A95E1F761E08091DC030E94B50064E69B
:100C900070E080E090E00E94390160E08091DC0328
:100CA0000E94B50064E170E080E090E00E943901AC
:100CB00060E08091DD030E94B500B80187E00E94EA
:100CC000EB0261E08091DD030E94B50068EC70E00A
:100CD00080E090E00E9439010E941C0481116BC0E9
:100CE0008DEA92E00E940E040E941C04811104C04F
:100CF00086EC92E00E940E040E94730387E0F801E4
:100D000011928A95E9F7A80162E387E00E94B40294
:100D1000882321F08AED92E00E940E046801F12CF4
:100D200082EF92E00E940E046F2D8EE393E00E940A
:100D30000B02F60161916F018EE393E00E940B02BA
:100D4000F394F7E0FF12ECCF90E0E92E90E0F92E5B
:100D500023E0C22E2091DB0330E0F901E255FF4F82
:100D60008491F901E656FF4FD490F901EA57FF4FFD
:100D7000B490B110DFC00E945D030E949102811106
:100D8000F4C08FEF92E00E940E04D12CC982A8011A
:100D900065E181E00E9438034D2D50E061E273E08F
:100DA0008EE393E00E946B0185E992E00E94BD030F
:100DB0000E947303CEC048E050E0FA01EB5EFE4FA4
:100DC000D080DA945A0182E0A80EB11C4A5E5E4FD0
:100DD000FA01C080ED2CF12CB5016B5E7E4FA701AE
:100DE000C8010E94F507A8016C2D8D2D0E943803C3
:100DF000A5014E0D5F1D4D36F1E05F07F0F219823F
:100E00001A8281E28B8380E28C8387E28D838BE080
:100E10008E83A80163E186E00E94380382E689831D
:100E2000A80161E090E080E00E94FC0280E48983F8
:100E3000A80161E083E090E00E94FC0288E08983E1
:100E400084E18A831B828FE08C8381E38D831E8201
:100E50001F8218861986A80169E080E090E10E944F
:100E6000FC028DE2898384ED8A83FF24F394FF8E54
:100E700089819A8199A388A3AE01415E5F4F65E0A5
:100E800080E091E10E94FC0281E88983A80161E091
:100E900080E092E10E94FC0282E08983A80161E087
:100EA00086E092E10E94FC028AE08983FA821B823A
:100EB000A80163E088E092E10E94FC021982FA82B4
:100EC00094E09B838AEA8C831D8222E32E839F8396
:100ED000888719861A861B861C86A8016CE08DE01F
:100EE00092E10E94FC0219821A821B821C821D82DE
:100EF0001E821F821886A80168E089E192E10E94A3
:100F0000FC028091110190911201A0911301B09106
:100F100014018F8F98A3A9A3BAA38FE788A3AE016A
:100F2000415E5F4F64E080E092E20E94FC0288EB49
:100F300092E0D8CE81110E948C00EB2DF0E0EE0FF4
:100F4000FF1FE859FF4FA591B491EC91DE2209F4FF
:100F500012CFE114F10409F4FDCE0E94D5018823DB
:100F600009F4F8CE0E940000F5CE60E08091DD0328
:100F70000E94B50087E70E947802B80181E00E94D4
:100F80007F0261E273E089810E947F0261E08091CB
:100F9000DD030E94B500D980F9CEA1E21A2EAA1B6A
:100FA000BB1BFD010DC0AA1FBB1FEE1FFF1FA21719
:100FB000B307E407F50720F0A21BB30BE40BF50B16
:100FC000661F771F881F991F1A9469F7609570959F
:100FD000809590959B01AC01BD01CF010895EE0F66
:100FE000FF1F0590F491E02D0994FB01DC0102C084
:100FF00001900D9241505040D8F70895F894FFCFDA
:101000000318000000000000080802010001C9C325
:10101000800800003D0702010001C9C380081300D9
:10102000000000000000061100020052000511003F
:101030000103600511010100000811020400000015
:1010400000000D111009000814000F31000000000D
:10105000091111050001B42B0000051112010084D3
:101060000811120403FFFF00021011120C08000007
:10107000003030000704800000001011120C140032
:1010800000000000000000000000001011120C2001
:101090000000000000000000000000000D11120917
:1010A0002C0000000000000000001011200C0002C5
:1010B0000007002EE001C9C3800000051120010CCB
:1010C000D20C1120081801800803800070200D1137
:1010D000200922030D00A7C6005402C20B112007ED
:1010E0002C0436800330AF800511200135E20D114C
:1010F00020093811ABAB0002FFFF002B0D112009B6
:1011000042A402D68300AD0180FF051120014C00EE
:10111000051120014E4005112001510A1011210C2A
:1011200000FFC4307FF5B5B8DE0517160C1011218D
:101130000C0C030015FF0000FFC4307FF5B5101143
:10114000210C18B8DE0517160C030015FF00000867
:1011500011220400087F003D0B112307002C0E0B09
:10116000040C73031011300C00000000000000009C
:1011700000000000000C11400800380E6666444470
:1011800020FE00000000000B026B0198015802C90C
:1011900001A701BB010D0A000A6275663A20000A28
:1011A000207061727420696E666F3A2000496E6922
:1011B00074206661696C2100496E697420737563DF
:1011C000636573732100436865636B2064657669AA
:1011D0006365206661696C656400476F742074689C
:1011E0006520434D4420746F2073657475702072C0
:1011F0007800577269746520627974653A200043FB
:10120000545320434845434B204641494C454420D4
:10121000494E2052454144205258204649464F00ED
:107E0000112484B714BE81FFF0D085E080938100F7
:107E100082E08093C00088E18093C10086E0809377
:107E2000C20080E18093C4008EE0C9D0259A86E02C
:107E300020E33CEF91E0309385002093840096BBD3
:107E4000B09BFECF1D9AA8958150A9F7CC24DD24C4
:107E500088248394B5E0AB2EA1E19A2EF3E0BF2EE7
:107E6000A2D0813461F49FD0082FAFD0023811F036
:107E7000013811F484E001C083E08DD089C08234E0
:107E800011F484E103C0853419F485E0A6D080C0E4
:107E9000853579F488D0E82EFF2485D0082F10E0AE
:107EA000102F00270E291F29000F111F8ED06801E7
:107EB0006FC0863521F484E090D080E0DECF843638
:107EC00009F040C070D06FD0082F6DD080E0C81688
:107ED00080E7D80618F4F601B7BEE895C0E0D1E017
:107EE00062D089930C17E1F7F0E0CF16F0E7DF06D8
:107EF00018F0F601B7BEE89568D007B600FCFDCFD4
:107F0000A601A0E0B1E02C9130E011968C91119780
:107F100090E0982F8827822B932B1296FA010C0160
:107F200087BEE89511244E5F5F4FF1E0A038BF0790
:107F300051F7F601A7BEE89507B600FCFDCF97BE46
:107F4000E89526C08437B1F42ED02DD0F82E2BD052
:107F50003CD0F601EF2C8F010F5F1F4F84911BD097
:107F6000EA94F801C1F70894C11CD11CFA94CF0C13
:107F7000D11C0EC0853739F428D08EE10CD085E9AC
:107F80000AD08FE07ACF813511F488E018D01DD067
:107F900080E101D065CF982F8091C00085FFFCCF94
:107FA0009093C60008958091C00087FFFCCF809118
:107FB000C00084FD01C0A8958091C6000895E0E648
:107FC000F0E098E1908380830895EDDF803219F02E
:107FD00088E0F5DFFFCF84E1DECF1F93182FE3DFCA
:107FE0001150E9F7F2DF1F91089580E0E8DFEE27F6
:047FF000FF270994CA
:027FFE00040479
:00000001FF
