:020000040000FA
:100000000C9468000C9490000C9490000C94900058
:100010000C9490000C9490000C9490000C94900020
:100020000C9490000C9490000C9490000C94900010
:100030000C9490000C9490000C9490000C94900000
:100040000C94B5080C9490000C9409070C943B0791
:100050000C9490000C9490000C9490000C949000E0
:100060000C9490000C949000000000090003020022
:10007000000405080000000000000000000000016E
:10008000020408102040800102040810200102042C
:100090000810204080400404040404040404020204
:1000A000020202020303030303030202030000002F
:1000B0000023002600290000000000250028002B56
:1000C0000000000000240027002A000092006B07B7
:1000D00011241FBECFEFD8E0DEBFCDBF13E0A0E0FC
:1000E000B1E0EAEEF4E102C005900D92A231B10751
:1000F000D9F723E0A2E1B3E001C01D92A13DB20710
:10010000E1F710E0C8E6D0E004C02197FE010E94AC
:10011000640AC636D107C9F70E94A6080C94730A70
:100120000C9400002AE049E062E087E293E00C943E
:100130005501FF920F931F93CF93DF93CDB7DEB797
:1001400028970FB6F894DEBF0FBECDBF26E040E87B
:1001500055E260E070E08BE293E00E94B10687E236
:1001600093E00E94660468E171E0882311F063E285
:1001700071E08BE293E00E94DF0787E293E00E9448
:100180004504811106C061E371E08BE293E00E94B7
:10019000DF0787E293E00E9491039E012F5F3F4FAC
:1001A00048E06EE470E287E293E00E944C05811122
:1001B00006C065E471E08BE293E00E94DF0765E62C
:1001C00071E08BE293E00E94DF078E010F5F1F4F0B
:1001D000F12C61E771E08BE293E00E94DF076F2D65
:1001E0008BE293E00E946406F80161918F0140E187
:1001F00050E08BE293E00E949E08F394F8E0FF1237
:10020000E8CF28960FB6F894DEBF0FBECDBFDF91C2
:10021000CF911F910F91FF90089587E293E00E9484
:1002200088018823D1F187E293E00E94690362E1AB
:1002300073E087E293E00E94FC03809326036EE75D
:1002400071E08BE293E00E94DF074091260350E0CB
:1002500062E173E08BE293E00E94980768E871E046
:100260008BE293E00E94DF0787E293E00E9434056F
:10027000682F880F770B695871094AE050E08BE2CC
:1002800093E00E948A0861E173E08BE293E00E94B0
:10029000DF0787E293E00C94910308958EBD000080
:1002A0000DB407FEFDCF8EB50895FC016083418338
:1002B00022830895CF93DF93EC010E94A10561E0B2
:1002C0008A810E94AE0961E08A810E94EA098CB5A8
:1002D0008F7D8CBD8CB58C7F81608CBD8DB58E7F04
:1002E0008DBD8CB5837F8CBDDF91CF910895CF9369
:1002F000DF93EC0161E089810E94AE0961E08981B0
:100300000E94EA0960E08881DF91CF910C94AE09E8
:10031000FC0180810E94180A21E0892B09F020E06D
:10032000822F08950F931F93CF93DF93EC0105EC79
:1003300019E001501109D1F060E08A810E94EA09B8
:1003400084E40E944E0180E00E944E0161E08F3FF4
:1003500049F48A810E94EA0981E0DF91CF911F91DF
:100360000F9108958A810E94EA09E3CF80E0F5CFDA
:100370000F931F93CF93C62F8A01C15030F0F8011D
:1003800081918F010E944E01F8CFCF911F910F9163
:1003900008950F931F93CF93DF9300D000D000D028
:1003A0001F92CDB7DEB78C0187E0E0E0F1E0DE011F
:1003B000119601900D928A95E1F761E0F801818133
:1003C0000E94EA0964E670E080E090E00E9424095F
:1003D00060E0F80181810E94EA0964E170E080E058
:1003E00090E00E94240960E0F80182810E94EA09FD
:1003F000AE014F5F5F4F67E0C8010E94B80161E046
:10040000F80182810E94EA0968EC70E080E090E0E7
:100410000E94240927960FB6F894DEBF0FBECDBF09
:10042000DF91CF911F910F910895AF92BF92CF921C
:10043000DF92EF92FF920F931F93CF93DF9300D041
:1004400000D0CDB7DEB78C01B62EA72EE42E690101
:100450000E949201F82E8823D9F081E18983AA8233
:10046000EB82BC8260E0F80182810E94EA09AE0161
:100470004F5F5F4F64E0C8010E94B801A6016E2D76
:10048000C8010E94B80161E0F80182810E94EA0976
:100490008F2D0F900F900F900F90DF91CF911F91A4
:1004A0000F91FF90EF90DF90CF90BF90AF900895A5
:1004B000CF93DF9300D01F92CDB7DEB720910A0112
:1004C00030910B0140910C0129833A834B839E01AB
:1004D0002F5F3F4F43E060E071E00E9415020F90F4
:1004E0000F900F90DF91CF9108950F931F93CF93AB
:1004F000DF9300D000D01F92CDB7DEB72FEF240FCF
:100500002330D0F48C01298350E0CE0102960E9462
:100510006A0A9E012F5F3F4F45E060E071E1C8012C
:100520000E9415020F900F900F900F900F90DF9187
:10053000CF911F910F91089580E0F4CF0F931F93F7
:10054000CF93DF9300D000D0CDB7DEB767FD1EC0DC
:1005500000910D0110910E0120910F0130911001B9
:1005600009831A832B833C836A839E012F5F3F4F4D
:1005700044E060E072E20E9415020F900F900F902D
:100580000F90DF91CF911F910F91089580E0F5CFEB
:10059000DF92EF92FF920F931F93CF93DF93EC01C3
:1005A000062FD42E79010E949201182F882381F002
:1005B00060E08A810E94EA098D2D0E944E01A70108
:1005C000602FCE010E94B80161E08A810E94EA0991
:1005D000812FDF91CF911F910F91FF90EF90DF90CE
:1005E00008956F927F928F929F92AF92BF92CF9217
:1005F000DF92EF92FF920F931F93CF93DF93CDB7CC
:10060000DEB76E970FB6F894DEBF0FBECDBF5C01AC
:100610007B016A0181E0C81AD108FB018081082FA3
:1006200010E00F5F1F4F0C151D05E8F4F701E00FF8
:10063000F11F90809A940E5F1F4F8180692C712C5E
:10064000B701600F711FA301CE0101960E946A0AD3
:100650009E012F5F3F4F482D692DC5010E94C802A2
:10066000060D171DE0CF6E960FB6F894DEBF0FBED5
:10067000CDBFDF91CF911F910F91FF90EF90DF9051
:10068000CF90BF90AF909F908F907F906F90089584
:10069000CF93DF9300D000D000D01F92CDB7DEB74C
:1006A00027E0E1E1F1E0DE01119601900D922A953B
:1006B000E1F79E012F5F3F4F42E367E00E94C802CF
:1006C00027960FB6F894DEBF0FBECDBFDF91CF9156
:1006D0000895CF93DF9300D01F92CDB7DEB7198274
:1006E0001A821B829E012F5F3F4F40E263E00E940F
:1006F000C8020F900F900F90DF91CF910895CF9384
:10070000DF931F92CDB7DEB723E029839E012F5FD1
:100710003F4F45E161E00E94C8020F90DF91CF9109
:1007200008950F931F93CF93DF931F92CDB7DEB73A
:100730008C0182E389839E012F5F3F4F41E062E19C
:1007400072E1C8010E941502C8010E947F03C8011E
:100750000E945802C8010E946903C8010E94480310
:1007600081E00F90DF91CF911F910F9108950F932A
:100770001F93CF93C62F8A01C15038F080E00E94AA
:100780004E01F80181938F01F7CFCF911F910F9107
:100790000895EF92FF920F931F93CF93DF931F92D1
:1007A000CDB7DEB78C017B010E949201882311F145
:1007B00060E0F80182810E94EA0987E70E944E0109
:1007C000AE014F5F5F4F61E0C8010E94B703A70110
:1007D0006981C8010E94B70361E0F80182810E942B
:1007E000EA0989810F90DF91CF911F910F91FF90BE
:1007F000EF90089580E0F6CF1F93CF93DF93EC0145
:100800000E94C903182FCE010E947F03812FDF9120
:10081000CF911F910895DF92EF92FF920F931F9354
:10082000CF93DF93EC01062FD42E79010E94920121
:10083000882349F160E08A810E94EA098D2D0E9497
:100840004E0161E08A810E94EA09CE010E94920174
:100850008823C9F060E08A810E94EA0984E40E944A
:100860004E01A701602FCE010E94B70361E08A818B
:100870000E94EA09812FDF91CF911F910F91FF9084
:10088000EF90DF90089510E0F5CFCF93DF93CDB7D1
:10089000DEB729970FB6F894DEBF0FBECDBF9E011D
:1008A0002F5F3F4F41E069E00E940B042B813C81A8
:1008B00081E02434334609F080E029960FB6F8949D
:1008C000DEBF0FBECDBFDF91CF910895EF92FF92B3
:1008D0000F931F93CF93DF93CDB7DEB764970FB617
:1008E000F894DEBF0FBECDBF8C010E947701C80116
:1008F0000E945A01C8010E94C901C8010E94450412
:10090000F82E882309F4A2C04EE651E06FE871E0AA
:10091000C8010E94F10219821A8281E28B8380E26F
:100920008C8387E28D838BE08E839E012F5F3F4F08
:1009300043E166E0C8010E94C80282E689839E0105
:100940002F5F3F4F41E070E060E0C8010E94150258
:1009500080E489839E012F5F3F4F41E063E070E0B8
:10096000C8010E94150288E0898384E18A831B8282
:100970008FE08C8381E38D831E821F821886198607
:100980009E012F5F3F4F49E060E070E1C8010E9487
:1009900015028DE2898384ED8A8342E0BE016F5F98
:1009A0007F4FC8010E94750281E889839E012F5FF5
:1009B0003F4F41E060E072E1C8010E94150282E011
:1009C00089839E012F5F3F4F41E066E072E1C801DD
:1009D0000E9415028AE08983EE24E394EA821B8256
:1009E0009E012F5F3F4F43E068E072E1C8010E9423
:1009F00015021982EA8294E09B838AEA8C831D8225
:100A000022E32E839F83888719861A861B861C867D
:100A10009E012F5F3F4F4CE06DE072E1C8010E94E4
:100A2000150219821A821B821C821D821E821F825D
:100A300018869E012F5F3F4F48E069E172E1C801CF
:100A40000E9415026FE7C8010E949E028F2D6496D6
:100A50000FB6F894DEBF0FBECDBFDF91CF911F91CF
:100A60000F91FF90EF900895CF93DF9300D000D0C7
:100A700000D0CDB7DEB79E012F5F3F4F42E266E068
:100A80000E940B048C8126960FB6F894DEBF0FBE31
:100A9000CDBFDF91CF910895BF92CF92DF92EF92B9
:100AA000FF920F931F93CF93DF9300D000D0CDB769
:100AB000DEB78C01F62EB72EE42E69010E9492015A
:100AC000811110C0F12C8F2D0F900F900F900F906F
:100AD000DF91CF911F910F91FF90EF90DF90CF901A
:100AE000BF90089582E18983BA82EB82FC8260E044
:100AF000F80182810E94EA09AE014F5F5F4F64E016
:100B0000C8010E94B80161E0F80182810E94EA09EF
:100B1000C8010E949201F82E8823A1F260E0F8013A
:100B200082810E94EA0984E40E944E01A6016E2D92
:100B3000C8010E94B70361E0F80182810E94EA09BE
:100B4000C2CFCF93CFB7F89480912A03811127C0E9
:100B5000E0EAF0E08491E9E8F0E09491E82FF0E039
:100B6000EE0FFF1FEF53FF4FA591B491EC91E923D6
:100B700021F461E08AE00E94EA0961E08AE00E94D3
:100B8000AE098CB580618CBD8CB580648CBD61E094
:100B90008DE00E94AE0961E08BE00E94AE09809179
:100BA0002A038F5F80932A03CFBFCF910895FC0162
:100BB000918D228D892F90E0805C9F4F821B91093F
:100BC0008F7399270895FC01918D828D981731F0CC
:100BD000828DE80FF11D858D90E008958FEF9FEFD6
:100BE0000895FC01918D828D981761F0A28DAE0F52
:100BF000BF2FB11D5D968C91928D9F5F9F73928FD9
:100C000090E008958FEF9FEF0895FC01538D448D80
:100C1000252F30E0842F90E0821B930B541710F0A7
:100C2000CF9608950197089581E697E0892B49F0C2
:100C300080E090E0892B29F00E94610781110C94DB
:100C400000000895FC01A48DA80FB92FB11DA35A6F
:100C5000BF4F2C91848D90E001968F739927848FDC
:100C6000A689B7892C93A089B1898C9183708064FF
:100C70008C93938D848D981306C00288F389E02DA0
:100C800080818F7D80830895CF93DF93EC01888DE1
:100C90008823B9F0AA89BB89E889F9898C9185FDF7
:100CA00003C0808186FD0DC00FB607FCF7CF8C9185
:100CB00085FFF2CF808185FFEDCFCE010E94220615
:100CC000E9CFDF91CF910895EF92FF920F931F9399
:100CD000CF93DF93EC0181E0888F9B8D8C8D9813EF
:100CE0001AC0E889F989808185FF15C09FB7F894FB
:100CF000EE89FF896083E889F98980818370806447
:100D000080839FBF81E090E0DF91CF911F910F9191
:100D1000FF90EF900895F62E0B8D10E00F5F1F4FA0
:100D20000F731127E02E8C8D8E110CC00FB607FCAF
:100D3000FACFE889F989808185FFF5CFCE010E943D
:100D40002206F1CFEB8DEC0FFD2FF11DE35AFF4F83
:100D5000F0829FB7F8940B8FEA89FB8980818062CB
:100D6000CFCFCF92DF92EF92FF921F93CF93DF937B
:100D7000EC016A017B01122FE889F98982E0808306
:100D8000C11481EED806E104F104A1F060E079E03D
:100D90008DE390E0A70196010E94420A215031099B
:100DA000410951095695479537952795211580E1B9
:100DB000380798F0E889F989108260E874E88EE1D4
:100DC00090E0A70196010E94420A21503109410991
:100DD00051095695479537952795EC85FD853083C4
:100DE000EE85FF852083188EEC89FD891083EA89C2
:100DF000FB89808188698083EA89FB8980818F7D76
:100E00008083DF91CF911F91FF90EF90DF90CF9083
:100E100008951F920F920FB60F9211242F938F9364
:100E20009F93EF93FF93E0913B03F0913C0380810C
:100E3000E0914103F091420382FD1BC090818091BB
:100E400044038F5F8F7320914503821741F0E09137
:100E50004403F0E0E55DFC4F958F80934403FF91E0
:100E6000EF919F918F912F910F900FBE0F901F9038
:100E700018958081F4CF1F920F920FB60F92112414
:100E80002F933F934F935F936F937F938F939F9392
:100E9000AF93BF93EF93FF938BE293E00E94220600
:100EA000FF91EF91BF91AF919F918F917F916F9142
:100EB0005F914F913F912F910F900FBE0F901F9018
:100EC00018958BE293E00E94D70521E0892B09F465
:100ED00020E0822F0895EBE2F3E01382128288EE85
:100EE00093E0A0E0B0E084839583A683B78381E09C
:100EF00093E09183808385EC90E09587848784ECF0
:100F000090E09787868780EC90E0918B808B81ECD6
:100F100090E0938B828B82EC90E0958B848B86ECB7
:100F200090E0978B868B118E128E138E148E0895FF
:100F3000AF92BF92CF92DF92EF92FF920F931F93E7
:100F4000CF93DF936C017B018B01040F151FEB0125
:100F50005E01AE18BF08C017D10759F06991D601DC
:100F6000ED91FC910190F081E02DC6010995892B4E
:100F700079F7C501DF91CF911F910F91FF90EF900D
:100F8000DF90CF90BF90AF900895FB0101900020BB
:100F9000E9F73197AF01461B570BDC01ED91FC914E
:100FA0000280F381E02D0994DC01ED91FC91019028
:100FB000F081E02D09946FE073E00C94C5070F9366
:100FC0001F93CF93DF938C01D0E0C0E061157105D2
:100FD00019F00E94C507EC01C8010E94DB078C0FC5
:100FE0009D1FDF91CF911F910F9108958F929F9236
:100FF000AF92BF92EF92FF920F931F93CF93DF9325
:10100000CDB7DEB7A1970FB6F894DEBF0FBECDBF48
:101010007C01FA01CB0119A2223008F42AE08E01EA
:101020000F5D1F4F822E912CB12CA12CBF01A50169
:1010300094010E94420AF901CA016A300CF5605D10
:10104000D8016E938D01232B242B252B79F790E06B
:1010500080E0109721F0BD01C7010E94C507A1964D
:101060000FB6F894DEBF0FBECDBFDF91CF911F91B9
:101070000F91FF90EF90BF90AF909F908F90089549
:10108000695CDECFCF92DF92EF92FF920F931F93B6
:10109000CF93DF932115310581F4DC01ED91FC91B3
:1010A0000190F081E02D642FDF91CF911F910F917E
:1010B000FF90EF90DF90CF9009942A30310501F531
:1010C0002AE077FF1DC06A017B01EC016DE20E94FE
:1010D000D4078C0144275527BA014C195D096E09C4
:1010E0007F092AE0CE010E94F607800F911FDF9151
:1010F000CF911F910F91FF90EF90DF90CF900895C7
:10110000DF91CF911F910F91FF90EF90DF90CF90E3
:101110000C94F6079A01AB01770F660B770B0C94D2
:1011200042082115310541F4DC01ED91FC9101905B
:10113000F081E02D642F09940C94F6079A01462F54
:1011400050E070E060E00C94910808950E945D0901
:101150000E94A5080E949900C4E1D6E00E940D01FA
:101160002097E1F30E941406F9CF1F920F920FB659
:101170000F9211242F933F938F939F93AF93BF931D
:101180008091CD039091CE03A091CF03B091D00375
:101190003091CC0323E0230F2D3768F126E8230F8D
:1011A0000296A11DB11D2093CC038093CD03909393
:1011B000CE03A093CF03B093D0038091C803909146
:1011C000C903A091CA03B091CB030196A11DB11D23
:1011D0008093C8039093C903A093CA03B093CB0331
:1011E000BF91AF919F918F913F912F910F900FBE23
:1011F0000F901F9018950196A11DB11DD4CF3FB738
:10120000F8948091C8039091C903A091CA03B0914A
:10121000CB0326B5A89B05C02F3F19F00196A11D51
:10122000B11D3FBFBA2FA92F982F8827BC01CD0130
:10123000620F711D811D911D42E0660F771F881F8F
:10124000991F4A95D1F708958F929F92AF92BF92BE
:10125000CF92DF92EF92FF926B017C010E94FF0818
:101260004B015C01C114D104E104F104E9F00E94D6
:10127000410A0E94FF08681979098A099B09683E9A
:1012800073408105910570F321E0C21AD108E1088D
:10129000F10888EE880E83E0981EA11CB11CC114D1
:1012A000D104E104F10429F7FF90EF90DF90CF9093
:1012B000BF90AF909F908F900895789484B583608D
:1012C00084BD85B5836085BDEEE6F0E080818160F8
:1012D0008083E1E8F0E082E0808380818160808328
:1012E000E0E8F0E0808181608083E1EBF0E08081E4
:1012F00084608083E0EBF0E080818160808387E818
:1013000080937A001092C1000895843081F028F40F
:101310008230E9F08330F9F00895883071F0893037
:1013200091F08530B9F4809180008F7D03C0809169
:1013300080008F778093800008958091B0008F7730
:101340008093B00008958091B0008F7DF9CF84B56F
:101350008F7784BD089584B58F7DFBCFCF93DF93C6
:1013600090E0FC01E158FF4F24918A569F4FFC0109
:1013700084918823C9F090E0880F991FFC01EF53F6
:10138000FF4FA591B491FC01E954FF4FC591D49151
:1013900061110DC09FB7F8948C91209582238C9396
:1013A0008881282328839FBFDF91CF9108956230E1
:1013B00051F49FB7F8943C91822F809583238C93AE
:1013C000E8812E2BEFCF8FB7F894EC912E2B2C9336
:1013D0008FBFEACF1F93CF93DF93282F30E0F9011F
:1013E000E859FF4F8491F901E158FF4FD491F90179
:1013F000EA56FF4FC491CC23A9F0162F81110E9409
:101400008509EC2FF0E0EE0FFF1FE954FF4FA59187
:10141000B4918FB7F894EC91111108C0D095DE23E8
:10142000DC938FBFDF91CF911F910895DE2BF8CF12
:10143000CF93DF93282F30E0F901E859FF4F8491D3
:10144000F901E158FF4FD491F901EA56FF4FC491D9
:10145000CC23A1F081110E948509EC2FF0E0EE0F62
:10146000FF1FE355FF4FA591B491EC91ED2381E06F
:1014700090E009F480E0DF91CF91089580E090E062
:10148000FACF0895A1E21A2EAA1BBB1BFD010DC0C5
:10149000AA1FBB1FEE1FFF1FA217B307E407F50724
:1014A00020F0A21BB30BE40BF50B661F771F881F00
:1014B000991F1A9469F760957095809590959B0196
:1014C000AC01BD01CF010895EE0FFF1F0590F4910F
:1014D000E02D0994FB01DC0102C001900D92415006
:1014E0005040D8F70895F894FFCF02010001C9C316
:1014F000800120000318000800003D0000000000EB
:101500000808496E6974206661696C2100496E693A
:101510007420737563636573732100436865636B3F
:1015200020646576696365206661696C6564004660
:1015300061696C656420746F2067657420746865E8
:1015400020636F6D702070726F70657274790048DF
:10155000656C6C6F20576F726C64005772697465AC
:1015600020627974653A200072785F627566663A27
:101570002000727373693A20000702010001C9C399
:101580008008130000000000000006110002005255
:10159000000511000103600511010100000811029E
:1015A0000400000000000D111009000814000F31A4
:1015B00000000000091111050001B42B0000051105
:1015C000120100840811120403FFFF00021011121F
:1015D0000C080000003030000704800000001011EB
:1015E000120C1400000000000000000000000010B9
:1015F00011120C200000000000000000000000009C
:101600000D1112092C000000000000000000101154
:10161000200C00020007002EE001C9C38000000575
:101620001120010CD20C1120081801800803800041
:1016300070200D11200922030D00A7C6005402C21C
:101640000B1120072C0436800330AF8005112001D8
:1016500035E20D1120093811ABAB0002FFFF002B62
:101660000D11200942A402D68300AD0180FF0511AF
:1016700020014C00051120014E4005112001510AA6
:101680001011210C00FFC4307FF5B5B8DE05171628
:101690000C1011210C0C030015FF0000FFC4307F5B
:1016A000F5B51011210C18B8DE0517160C0300153E
:1016B000FF00000811220400087F003D0B112307E2
:1016C000002C0E0B040C73031011300C00000000F2
:1016D0000000000000000000000C11400800380E5F
:1016E0006666444420FE000000000064069807057A
:0C16F000064406D705F105E3050D0A00CD
:107E000001C0B7C0112484B790E89093610010922C
:107E10006100882361F0982F9A70923041F081FFC1
:107E200002C097EF94BF282E80E0C6D0E9C085E05D
:107E30008093810082E08093C00088E18093C1003C
:107E400080E18093C40086E08093C2008EE0B4D0CD
:107E5000259A84E020E33CEF91E030938500209365
:107E6000840096BBB09BFECF1D9AA8954091C000A0
:107E700047FD02C0815089F793D0813479F490D0C6
:107E8000182FA0D0123811F480E004C088E0113817
:107E900009F083E07ED080E17CD0EECF823419F40B
:107EA00084E198D0F8CF853411F485E0FACF853598
:107EB00041F476D0C82F74D0D82FCC0FDD1F82D0DC
:107EC000EACF863519F484E085D0DECF843691F58B
:107ED00067D066D0F82E64D0D82E00E011E05801AB
:107EE0008FEFA81AB80A5CD0F80180838501FA10D8
:107EF000F6CF68D0F5E4DF1201C0FFCF50E040E0DC
:107F000063E0CE0136D08E01E0E0F1E06F0182E067
:107F1000C80ED11C4081518161E0C8012AD00E5F9A
:107F20001F4FF601FC10F2CF50E040E065E0CE01BB
:107F300020D0B1CF843771F433D032D0F82E30D086
:107F400041D08E01F80185918F0123D0FA94F11070
:107F5000F9CFA1CF853739F435D08EE11AD085E934
:107F600018D08FE097CF813509F0A9CF88E024D0D1
:107F7000A6CFFC010A0167BFE895112407B600FCF3
:107F8000FDCF667029F0452B19F481E187BFE89594
:107F900008959091C00095FFFCCF8093C60008958E
:107FA0008091C00087FFFCCF8091C00084FD01C09C
:107FB000A8958091C6000895E0E6F0E098E19083EE
:107FC00080830895EDDF803219F088E0F5DFFFCF80
:107FD00084E1DFCFCF93C82FE3DFC150E9F7CF9122
:027FE000F1CFDF
:027FFE00000879
:00000001FF
