:020000040000FA
:100000000C9462000C948A000C948A000C948A0070
:100010000C948A000C948A000C948A000C948A0038
:100020000C948A000C948A000C948A000C948A0028
:100030000C948A000C948A000C948A000C948A0018
:100040000C94E5030C948A000C9455040C942F0432
:100050000C948A000C948A000C948A000C948A00F8
:100060000C948A000C948A000000000023002600F3
:10007000290000000000240027002A0000000000E2
:10008000250028002B0004040404040404040202D4
:100090000202020203030303030301020408102007
:1000A0004080010204081020010204081020000012
:1000B0000008000201000003040700000000000027
:1000C0000000870411241FBECFEFD8E0DEBFCDBFF4
:1000D00012E0A0E0B1E0EAE3FFE002C005900D927B
:1000E000A83BB107D9F723E0A8EBB2E001C01D920D
:1000F000A637B207E1F710E0C2E6D0E004C02197CE
:10010000FE010E948C07C136D107C9F70E94BC04CA
:100110000C949B070C940000833081F028F481300C
:1001200099F08230A9F008958730A9F08830C9F09D
:100130008430B1F4809180008F7D03C08091800075
:100140008F7780938000089584B58F7784BD08955C
:1001500084B58F7DFBCF8091B0008F778093B00006
:1001600008958091B0008F7DF9CF1F93CF93DF93D7
:10017000282F30E0F901E255FF4F8491F901E6564E
:10018000FF4FD491F901EA57FF4FC491CC23A9F056
:10019000162F81110E948C00EC2FF0E0EE0FFF1F54
:1001A000E458FF4FA591B4918FB7F894EC911111D9
:1001B00008C0D095DE23DC938FBFDF91CF911F91D4
:1001C0000895DE2BF8CFCF93DF9390E0FC01E65645
:1001D000FF4F24918A579F4FFC0184918823D1F0CF
:1001E00090E0880F991FFC01EE58FF4FA591B49144
:1001F000FC01E458FF4FC591D49161110EC09FB727
:10020000F8948C91E22FE0958E238C932881E22341
:10021000E8839FBFDF91CF9108958FB7F894EC9159
:10022000E22BEC938FBFF6CF3FB7F8948091D202C8
:100230009091D302A091D402B091D50226B5A89B8B
:1002400005C02F3F19F00196A11DB11D3FBFBA2F68
:10025000A92F982F8827BC01CD01620F711D811D28
:10026000911D42E0660F771F881F991F4A95D1F7AD
:1002700008958F929F92AF92BF92CF92DF92EF92AA
:10028000FF924B015C010E9414016B017C010E94F2
:1002900014016C197D098E099F09683E7340810520
:1002A0009105A8F321E0821A9108A108B10888EE0F
:1002B000C80E83E0D81EE11CF11C81149104A10436
:1002C000B10429F7FF90EF90DF90CF90BF90AF90EF
:1002D0009F908F900895AF92BF92CF92DF92EF924E
:1002E000FF920F931F93CF93DF936C017B018B01E0
:1002F000040F151FEB015E01AE18BF08C017D10730
:1003000059F06991D601ED91FC910190F081E02DB9
:10031000C6010995892B79F7C501DF91CF911F910E
:100320000F91FF90EF90DF90CF90BF90AF90089526
:10033000FC01538D448D252F30E0842F90E0821BEB
:10034000930B541710F0CF96089501970895FC0170
:10035000918D828D981761F0A28DAE0FBF2FB11DC8
:100360005D968C91928D9F5F9F73928F90E0089520
:100370008FEF9FEF0895FC01918D828D981731F0DA
:10038000828DE80FF11D858D90E008958FEF9FEF2E
:100390000895FC01918D228D892F90E0805C9F4F04
:1003A000821B91098F739927089586ED92E00E9430
:1003B000C90121E0892B09F420E0822F089580E013
:1003C00090E0892B29F00E94D50181110C94000046
:1003D0000895FC01A48DA80FB92FB11DA35ABF4FDA
:1003E0002C91848D90E001968F739927848FA68934
:1003F000B7892C93A089B1898C91837080648C9388
:10040000938D848D981306C00288F389E02D808136
:100410008F7D80830895EF92FF920F931F93CF9368
:10042000DF93EC0181E0888F9B8D8C8D98131AC02F
:10043000E889F989808185FF15C09FB7F894EE8916
:10044000FF896083E889F989808183708064808373
:100450009FBF81E090E0DF91CF911F910F91FF90BE
:10046000EF900895F62E0B8D10E00F5F1F4F0F7366
:100470001127E02E8C8D8E110CC00FB607FCFACF21
:10048000E889F989808185FFF5CFCE010E94E901D5
:10049000F1CFEB8DEC0FFD2FF11DE35AFF4FF082F2
:1004A0009FB7F8940B8FEA89FB8980818062CFCF58
:1004B000CF93DF93EC01888D8823B9F0AA89BB899B
:1004C000E889F9898C9185FD03C0808186FD0DC086
:1004D0000FB607FCF7CF8C9185FFF2CF808185FFA7
:1004E000EDCFCE010E94E901E9CFDF91CF910895D0
:1004F0008EBD00000DB407FEFDCF8EB508950F939D
:100500001F93CF93C82F8B01C15030F0F801819118
:100510008F010E947802F8CFCF911F910F9108951B
:10052000CF93DF93C5ECD9E02197D9F060E08091BB
:1005300075030E94B50084E40E94780280E00E9466
:10054000780261E08F3F41F4809175030E94B5000D
:1005500081E0DF91CF910895809175030E94B500ED
:10056000E3CF80E0F6CFCF92DF92EF92FF920F932E
:100570001F93CF93DF9300D000D0CDB7DEB7D82E36
:10058000C92E062F7A010E949002182F8823C9F0E5
:1005900081E18983CA820B83DC8260E080917503EC
:1005A0000E94B500BE016F5F7F4F84E00E947F0212
:1005B000B701802F0E947F0261E0809175030E9445
:1005C000B500812F0F900F900F900F90DF91CF917A
:1005D0001F910F91FF90EF90DF90CF900895FF92C1
:1005E0000F931F93CF93DF93D82FF62E8A010E948B
:1005F0009002C82F882389F060E0809175030E94E3
:10060000B5008F2D0E947802B8018D2F0E947F02C5
:1006100061E0809175030E94B5008C2FDF91CF912E
:100620001F910F91FF900895CF93DF9300D01F92F9
:10063000CDB7DEB719821A821B82AE014F5F5F4FC2
:1006400060E283E00E94EF020F900F900F90DF9125
:10065000CF910895CF93DF93CDB7DEB728970FB62C
:10066000F894DEBF0FBECDBF82E38887AE01485F3E
:100670005F4F61E082E192E10E94B30283E08983EF
:10068000AE014F5F5F4F65E181E00E94EF02809114
:10069000000190910101A091020189839A83AB83AB
:1006A000AE014F5F5F4F63E080E091E00E94B302D4
:1006B0000E94140387E0E3E0F1E0DE01119601906F
:1006C0000D928A95E1F7AE014F5F5F4F62E387E0DD
:1006D0000E94EF0281E028960FB6F894DEBF0FBEAD
:1006E000CDBFDF91CF9108950F931F93CF93C82F64
:1006F0008B01C15038F080E00E947802F8018193AC
:100700008F01F7CFCF911F910F910895FC010190B8
:100710000020E9F73197AF01481B590BBC0186ED6A
:1007200092E00C946B018F929F92AF92BF920F93C5
:100730001F93CF93DF93CDB7DEB7A1970FB6F89491
:10074000DEBF0FBECDBF19A2423008F44AE08E01D1
:100750000F5D1F4F842E912CB12CA12CA50194016B
:100760000E946A07E62FB901CA01EA30F4F4E05D9D
:10077000D801EE938D01232B242B252B79F790E0C4
:1007800080E0109719F0CD010E948603A1960FB664
:10079000F894DEBF0FBECDBFDF91CF911F910F91B7
:1007A000BF90AF909F908F900895E95CE1CFCF9379
:1007B000DF930E948603EC0185E992E00E948603A4
:1007C0008C0F9D1FDF91CF9108951F920F920FB64E
:1007D0000F9211242F933F938F939F93AF93BF93C7
:1007E0008091CE029091CF02A091D002B091D1021F
:1007F0003091CD0223E0230F2D3758F50196A11D2E
:10080000B11D2093CD028093CE029093CF02A0938E
:10081000D002B093D1028091D2029091D302A091E4
:10082000D402B091D5020196A11DB11D8093D202D0
:100830009093D302A093D402B093D502BF91AF910D
:100840009F918F913F912F910F900FBE0F901F900E
:10085000189526E8230F0296A11DB11DD2CF1F9235
:100860000F920FB60F9211242F933F934F935F93E4
:100870006F937F938F939F93AF93BF93EF93FF9368
:1008800086ED92E00E94E901FF91EF91BF91AF9157
:100890009F918F917F916F915F914F913F912F9198
:1008A0000F900FBE0F901F9018951F920F920FB6CA
:1008B0000F9211242F938F939F93EF93FF93E091C7
:1008C000E602F091E7028081E091EC02F091ED0206
:1008D00082FD1BC090818091EF028F5F8F7320910A
:1008E000F002821741F0E091EF02F0E0EA52FD4F92
:1008F000958F8093EF02FF91EF919F918F912F91B0
:100900000F900FBE0F901F9018958081F4CFE6EDE9
:10091000F2E01382128288EE93E0A0E0B0E08483DC
:100920009583A683B78387E892E09183808385ECE3
:1009300090E09587848784EC90E09787868780ECA9
:1009400090E0918B808B81EC90E0938B828B82EC9A
:1009500090E0958B848B86EC90E0978B868B118E44
:10096000128E138E148EE3E7F3E082E0808389E039
:1009700081838AE082830895CF93DF93CDB7DEB77A
:10098000A3970FB6F894DEBF0FBECDBF789484B5A1
:10099000826084BD84B5816084BD85B5826085BD7B
:1009A00085B5816085BD80916E00816080936E0009
:1009B00010928100809181008260809381008091FB
:1009C00081008160809381008091800081608093AC
:1009D00080008091B10084608093B1008091B0006C
:1009E00081608093B00080917A00846080937A0067
:1009F00080917A00826080937A0080917A00816091
:100A000080937A0080917A00806880937A001092B7
:100A1000C100E091E602F091E70282E08083E0917C
:100A2000E202F091E3021082E091E402F091E5022B
:100A30008FEC80831092EE02E091EA02F091EB02DB
:100A400086E08083E091E802F091E9028081806194
:100A50008083E091E802F091E902808188608083E0
:100A6000E091E802F091E902808180688083E09162
:100A7000E802F091E90280818F7D808361E08091BE
:100A800074030E94E30061E0809174030E94B5004A
:100A900060E0809173030E94E3001FB7F894809197
:100AA000B802811127C0E0E9F0E08491E4EAF0E0C7
:100AB0009491E82FF0E0EE0FFF1FEE58FF4FA59145
:100AC000B491EC91E92321F461E08AE00E94B50041
:100AD00061E08AE00E94E3008CB580618CBD8CB53A
:100AE00080648CBD61E08DE00E94E30061E08BE0FA
:100AF0000E94E3008091B8028F5F8093B8021FBF0D
:100B000061E0809175030E94E30061E080917503CC
:100B10000E94B5008CB58F7D8CBD8CB58C7F8160BB
:100B20008CBD8DB58E7F8DBD8CB5837F8CBD87E0F0
:100B3000EAE0F1E0DE01119601900D928A95E1F76D
:100B400061E0809174030E94B50064E670E080E08B
:100B500090E00E94390160E0809174030E94B5002A
:100B600064E170E080E090E00E94390160E08091F3
:100B700075030E94B500BE016F5F7F4F87E00E9442
:100B80007F0261E0809175030E94B50068EC70E01F
:100B900080E090E00E9439010E949002882321F1B8
:100BA00060E0809175030E94B50081E00E947802A8
:100BB00061E0809175030E94B5000E949002882335
:100BC00099F060E0809175030E94B50084E40E9472
:100BD0007802BE016F5F7F4F89E00E94740361E07D
:100BE000809175030E94B5000B811C81102701279D
:100BF000102788E992E00E94D703CE0101967C017C
:100C00006E019AE0C90ED11CF70161917F0170E07D
:100C100090E080E040E10E949303EC14FD04A1F712
:100C20008FE992E00E94D703F12CE12C40E1C7014B
:100C3000B8010E94930386E992E00E94D70340E145
:100C4000C701B8010E94930386E992E00E94D7038E
:100C50000336144409F452C08DEA92E00E94D7038F
:100C60000E942A0300E010E093E0E92E2091730334
:100C700030E0F901E255FF4F8491F901E656FF4F4C
:100C8000F490F901EA57FF4FD490D11008C10E94A7
:100C900014030E949002F12C8823C9F060E0809137
:100CA00075030E94B50087E70E947802BE016F5F5E
:100CB0007F4F81E00E94740369EB72E089810E949A
:100CC000740361E0809175030E94B500F980E982A8
:100CD000AE014F5F5F4F65E181E00E94EF024F2D53
:100CE00050E069EB72E086ED92E00E946B0185E9CD
:100CF00092E00E9486030E942A03E0C048E050E090
:100D0000FA01EB5EFE4FF080FA946A0182E0C80EB1
:100D1000D11C4A5E5E4FFA01E0800F2D10E0B60153
:100D20006B5E7E4FA801CE0101960E949207AE0134
:100D30004F5F5F4F6E2D8F2D0E94EF02A601400F77
:100D4000511F4D36F1E05F07D8F219821A8281E215
:100D50008B8380E28C8387E28D838BE08E83AE0170
:100D60004F5F5F4F63E186E00E94EF0282E6898376
:100D7000AE014F5F5F4F61E090E080E00E94B30200
:100D800080E48983AE014F5F5F4F61E083E090E0D4
:100D90000E94B30288E0898384E18A831B828FE00A
:100DA0008C8381E38D831E821F8218861986AE0193
:100DB0004F5F5F4F69E080E090E10E94B3028DE2F7
:100DC000898384ED8A8311E01F8F89819A8199A399
:100DD00088A3AE01415E5F4F65E080E091E10E9433
:100DE000B30281E88983AE014F5F5F4F61E080E02D
:100DF00092E10E94B30282E08983AE014F5F5F4FB0
:100E000061E086E092E10E94B3028AE089831A835E
:100E10001B82AE014F5F5F4F63E088E092E10E946A
:100E2000B30219821A8394E09B838AEA8C831D8221
:100E300022E32E839F83888719861A861B861C8649
:100E4000AE014F5F5F4F6CE08DE092E10E94B30214
:100E500019821A821B821C821D821E821F821886A2
:100E6000AE014F5F5F4F68E089E192E10E94B302FB
:100E70008091110190911201A0911301B091140180
:100E80008F8F98A3A9A3BAA38FE788A3AE01415E71
:100E90005F4F64E080E092E20E94B302E1CE8111F4
:100EA0000E948C00ED2DF0E0EE0FFF1FE859FF4F80
:100EB000A591B491EC91FE2209F4E9CE011511053A
:100EC00009F4D4CE0E94D501882309F4CFCE0E9424
:100ED0000000CCCEA1E21A2EAA1BBB1BFD010DC047
:100EE000AA1FBB1FEE1FFF1FA217B307E407F507DA
:100EF00020F0A21BB30BE40BF50B661F771F881FB6
:100F0000991F1A9469F760957095809590959B014B
:100F1000AC01BD01CF010895EE0FFF1F0590F491C4
:100F2000E02D0994FB01DC0102C001900D924150BB
:100F30005040D8F70895F894FFCF03180000000040
:100F40000000080802010001C9C3800800003D0735
:100F500002010001C9C38008130000000000000066
:100F60000611000200520005110001036005110185
:100F70000100000811020400000000000D1110091A
:100F8000000814000F3100000000091111050001D4
:100F9000B42B00000511120100840811120403FF94
:100FA000FF00021011120C0800000030300007048E
:100FB000800000001011120C14000000000000005E
:100FC00000000000001011120C20000000000000C2
:100FD0000000000000000D1112092C0000000000AC
:100FE000000000001011200C00020007002EE0019C
:100FF000C9C3800000051120010CD20C1120081873
:1010000001800803800070200D11200922030D00CB
:10101000A7C6005402C20B1120072C0436800330EF
:10102000AF800511200135E20D1120093811ABAB5D
:101030000002FFFF002B0D11200942A402D68300FD
:10104000AD0180FF051120014C00051120014E402B
:1010500005112001510A1011210C00FFC4307FF549
:10106000B5B8DE0517160C1011210C0C030015FF86
:101070000000FFC4307FF5B51011210C18B8DE0553
:1010800017160C030015FF00000811220400087F4A
:10109000003D0B112307002C0E0B040C73031011E1
:1010A000300C000000000000000000000000000CF8
:1010B00011400800380E6666444420FE000000001F
:1010C000000B026B0198015802C901A701BB010D79
:1010D0000A000A6275663A20000A20706172742064
:1010E000696E666F3A2000496E6974206661696CAA
:0210F0002100DD
:107E0000112484B714BE81FFF0D085E080938100F7
:107E100082E08093C00088E18093C10086E0809377
:107E2000C20080E18093C4008EE0C9D0259A86E02C
:107E300020E33CEF91E0309385002093840096BBD3
:107E4000B09BFECF1D9AA8958150A9F7CC24DD24C4
:107E500088248394B5E0AB2EA1E19A2EF3E0BF2EE7
:107E6000A2D0813461F49FD0082FAFD0023811F036
:107E7000013811F484E001C083E08DD089C08234E0
:107E800011F484E103C0853419F485E0A6D080C0E4
:107E9000853579F488D0E82EFF2485D0082F10E0AE
:107EA000102F00270E291F29000F111F8ED06801E7
:107EB0006FC0863521F484E090D080E0DECF843638
:107EC00009F040C070D06FD0082F6DD080E0C81688
:107ED00080E7D80618F4F601B7BEE895C0E0D1E017
:107EE00062D089930C17E1F7F0E0CF16F0E7DF06D8
:107EF00018F0F601B7BEE89568D007B600FCFDCFD4
:107F0000A601A0E0B1E02C9130E011968C91119780
:107F100090E0982F8827822B932B1296FA010C0160
:107F200087BEE89511244E5F5F4FF1E0A038BF0790
:107F300051F7F601A7BEE89507B600FCFDCF97BE46
:107F4000E89526C08437B1F42ED02DD0F82E2BD052
:107F50003CD0F601EF2C8F010F5F1F4F84911BD097
:107F6000EA94F801C1F70894C11CD11CFA94CF0C13
:107F7000D11C0EC0853739F428D08EE10CD085E9AC
:107F80000AD08FE07ACF813511F488E018D01DD067
:107F900080E101D065CF982F8091C00085FFFCCF94
:107FA0009093C60008958091C00087FFFCCF809118
:107FB000C00084FD01C0A8958091C6000895E0E648
:107FC000F0E098E1908380830895EDDF803219F02E
:107FD00088E0F5DFFFCF84E1DECF1F93182FE3DFCA
:107FE0001150E9F7F2DF1F91089580E0E8DFEE27F6
:047FF000FF270994CA
:027FFE00040479
:00000001FF
