:100000000C9468000C9490000C9490000C94900058
:100010000C9490000C9490000C9490000C94900020
:100020000C9490000C9490000C9490000C94900010
:100030000C9490000C9490000C9490000C94900000
:100040000C94AD080C9490000C9401070C943307A9
:100050000C9490000C9490000C9490000C949000E0
:100060000C9490000C949000000000090003020022
:10007000000405080000000000000000000000016E
:10008000020408102040800102040810200102042C
:100090000810204080400404040404040404020204
:1000A000020202020303030303030202030000002F
:1000B0000023002600290000000000250028002B56
:1000C0000000000000240027002A000092006307BF
:1000D00011241FBECFEFD8E0DEBFCDBF13E0A0E0FC
:1000E000B1E0EAEDF4E102C005900D92A630B1074F
:1000F000D9F723E0A6E0B3E001C01D92A53CB2070A
:10010000E1F710E0C8E6D0E004C02197FE010E94AC
:100110005C0AC636D107C9F70E949E080C946B0A88
:100120000C9400002AE049E062E08BE193E00C943B
:100130004D01FF920F931F93CF93DF93CDB7DEB79F
:1001400028970FB6F894DEBF0FBECDBF26E040E87B
:1001500055E260E070E08FE193E00E94A9068BE138
:1001600093E00E945E0468E171E0882311F063E28D
:1001700071E08FE193E00E94D7078BE193E00E944A
:100180003D04811106C061E371E08FE193E00E94BC
:10019000D7078BE193E00E9489039E012F5F3F4FB9
:1001A00048E06EE470E28BE193E00E944405811127
:1001B00006C065E471E08FE193E00E94D7078E01ED
:1001C0000F5F1F4FF12C65E671E08FE193E00E9415
:1001D000D7076F2D8FE193E00E945C06F8016191D3
:1001E0008F0140E150E08FE193E00E949608F39484
:1001F000F8E0FF12E8CF28960FB6F894DEBF0FBEE6
:10020000CDBFDF91CF911F910F91FF9008958BE1AA
:1002100093E00E9480018823C1F18BE193E00E946A
:10022000610366E073E08BE193E00E94F403809346
:100230001A0362E771E08FE193E00E94D7074091D3
:100240001A0350E066E073E08FE193E00E949007AC
:100250006CE771E08FE193E00E94D7078BE193E0B8
:100260000E942C05682F880F770B4AE050E08FE141
:1002700093E00E94820865E073E08FE193E00E94C2
:10028000D7078BE193E00C94890308958EBD00009D
:100290000DB407FEFDCF8EB50895FC016083418348
:1002A00022830895CF93DF93EC010E94990561E0CA
:1002B0008A810E94A60961E08A810E94E2098CB5C8
:1002C0008F7D8CBD8CB58C7F81608CBD8DB58E7F14
:1002D0008DBD8CB5837F8CBDDF91CF910895CF9379
:1002E000DF93EC0161E089810E94A60961E08981C8
:1002F0000E94E20960E08881DF91CF910C94A60909
:10030000FC0180810E94100A21E0892B09F020E085
:10031000822F08950F931F93CF93DF93EC0105EC89
:1003200019E001501109D1F060E08A810E94E209D0
:1003300084E40E94460180E00E94460161E08F3F14
:1003400049F48A810E94E20981E0DF91CF911F91F7
:100350000F9108958A810E94E209E3CF80E0F5CFF2
:100360000F931F93CF93C62F8A01C15030F0F8012D
:1003700081918F010E944601F8CFCF911F910F917B
:1003800008950F931F93CF93DF9300D000D000D038
:100390001F92CDB7DEB78C0187E0E0E0F1E0DE012F
:1003A000119601900D928A95E1F761E0F801818143
:1003B0000E94E20964E670E080E090E00E941C097F
:1003C00060E0F80181810E94E20964E170E080E070
:1003D00090E00E941C0960E0F80182810E94E2091D
:1003E000AE014F5F5F4F67E0C8010E94B00161E05E
:1003F000F80182810E94E20968EC70E080E090E000
:100400000E941C0927960FB6F894DEBF0FBECDBF21
:10041000DF91CF911F910F910895AF92BF92CF922C
:10042000DF92EF92FF920F931F93CF93DF9300D051
:1004300000D0CDB7DEB78C01B62EA72EE42E690111
:100440000E948A01F82E8823D9F081E18983AA824B
:10045000EB82BC8260E0F80182810E94E209AE0179
:100460004F5F5F4F64E0C8010E94B001A6016E2D8E
:10047000C8010E94B00161E0F80182810E94E20996
:100480008F2D0F900F900F900F90DF91CF911F91B4
:100490000F91FF90EF90DF90CF90BF90AF900895B5
:1004A000CF93DF9300D01F92CDB7DEB720910A0122
:1004B00030910B0140910C0129833A834B839E01BB
:1004C0002F5F3F4F43E060E071E00E940D020F900C
:1004D0000F900F90DF91CF9108950F931F93CF93BB
:1004E000DF9300D000D01F92CDB7DEB72FEF240FDF
:1004F0002330D0F48C01298350E0CE0102960E9473
:10050000620A9E012F5F3F4F45E060E071E1C80144
:100510000E940D020F900F900F900F900F90DF919F
:10052000CF911F910F91089580E0F4CF0F931F9307
:10053000CF93DF9300D000D0CDB7DEB767FD1EC0EC
:1005400000910D0110910E0120910F0130911001C9
:1005500009831A832B833C836A839E012F5F3F4F5D
:1005600044E060E072E20E940D020F900F900F9045
:100570000F90DF91CF911F910F91089580E0F5CFFB
:10058000DF92EF92FF920F931F93CF93DF93EC01D3
:10059000062FD42E79010E948A01182F882381F01A
:1005A00060E08A810E94E2098D2D0E944601A70128
:1005B000602FCE010E94B00161E08A810E94E209B1
:1005C000812FDF91CF911F910F91FF90EF90DF90DE
:1005D00008956F927F928F929F92AF92BF92CF9227
:1005E000DF92EF92FF920F931F93CF93DF93CDB7DC
:1005F000DEB76E970FB6F894DEBF0FBECDBF5C01BD
:100600007B016A0181E0C81AD108FB018081082FB3
:1006100010E00F5F1F4F0C151D05E8F4F701E00F08
:10062000F11F90809A940E5F1F4F8180692C712C6E
:10063000B701600F711FA301CE0101960E94620AEB
:100640009E012F5F3F4F482D692DC5010E94C002BA
:10065000060D171DE0CF6E960FB6F894DEBF0FBEE5
:10066000CDBFDF91CF911F910F91FF90EF90DF9061
:10067000CF90BF90AF909F908F907F906F90089594
:10068000CF93DF9300D000D000D01F92CDB7DEB75C
:1006900027E0E1E1F1E0DE01119601900D922A954B
:1006A000E1F79E012F5F3F4F42E367E00E94C002E7
:1006B00027960FB6F894DEBF0FBECDBFDF91CF9166
:1006C0000895CF93DF9300D01F92CDB7DEB7198284
:1006D0001A821B829E012F5F3F4F40E263E00E941F
:1006E000C0020F900F900F90DF91CF910895CF939C
:1006F000DF931F92CDB7DEB723E029839E012F5FE2
:100700003F4F45E161E00E94C0020F90DF91CF9121
:1007100008950F931F93CF93DF931F92CDB7DEB74A
:100720008C0182E389839E012F5F3F4F41E062E1AC
:1007300072E1C8010E940D02C8010E947703C8013E
:100740000E945002C8010E946103C8010E94400338
:1007500081E00F90DF91CF911F910F9108950F933A
:100760001F93CF93C62F8A01C15038F080E00E94BA
:100770004601F80181938F01F7CFCF911F910F911F
:100780000895EF92FF920F931F93CF93DF931F92E1
:10079000CDB7DEB78C017B010E948A01882311F15D
:1007A00060E0F80182810E94E20987E70E94460129
:1007B000AE014F5F5F4F61E0C8010E94AF03A70128
:1007C0006981C8010E94AF0361E0F80182810E9443
:1007D000E20989810F90DF91CF911F910F91FF90D6
:1007E000EF90089580E0F6CF1F93CF93DF93EC0155
:1007F0000E94C103182FCE010E947703812FDF9141
:10080000CF911F910895DF92EF92FF920F931F9364
:10081000CF93DF93EC01062FD42E79010E948A0139
:10082000882349F160E08A810E94E2098D2D0E94AF
:10083000460161E08A810E94E209CE010E948A019C
:100840008823C9F060E08A810E94E20984E40E9462
:100850004601A701602FCE010E94AF0361E08A81AB
:100860000E94E209812FDF91CF911F910F91FF909C
:10087000EF90DF90089510E0F5CFCF93DF93CDB7E1
:10088000DEB729970FB6F894DEBF0FBECDBF9E012D
:100890002F5F3F4F41E069E00E9403042B813C81C0
:1008A00081E02434334609F080E029960FB6F894AD
:1008B000DEBF0FBECDBFDF91CF910895EF92FF92C3
:1008C0000F931F93CF93DF93CDB7DEB764970FB627
:1008D000F894DEBF0FBECDBF8C010E946F01C8012E
:1008E0000E945201C8010E94C101C8010E943D043A
:1008F000F82E882309F4A2C04EE651E063E871E0C7
:10090000C8010E94E90219821A8281E28B8380E287
:100910008C8387E28D838BE08E839E012F5F3F4F18
:1009200043E166E0C8010E94C00282E689839E011D
:100930002F5F3F4F41E070E060E0C8010E940D0270
:1009400080E489839E012F5F3F4F41E063E070E0C8
:10095000C8010E940D0288E0898384E18A831B829A
:100960008FE08C8381E38D831E821F821886198617
:100970009E012F5F3F4F49E060E070E1C8010E9497
:100980000D028DE2898384ED8A8342E0BE016F5FB0
:100990007F4FC8010E946D0281E889839E012F5F0D
:1009A0003F4F41E060E072E1C8010E940D0282E029
:1009B00089839E012F5F3F4F41E066E072E1C801ED
:1009C0000E940D028AE08983EE24E394EA821B826E
:1009D0009E012F5F3F4F43E068E072E1C8010E9433
:1009E0000D021982EA8294E09B838AEA8C831D823D
:1009F00022E32E839F83888719861A861B861C868E
:100A00009E012F5F3F4F4CE06DE072E1C8010E94F4
:100A10000D0219821A821B821C821D821E821F8275
:100A200018869E012F5F3F4F48E069E172E1C801DF
:100A30000E940D026FE7C8010E9496028F2D6496F6
:100A40000FB6F894DEBF0FBECDBFDF91CF911F91DF
:100A50000F91FF90EF900895CF93DF9300D000D0D7
:100A600000D0CDB7DEB79E012F5F3F4F42E266E078
:100A70000E9403048C8126960FB6F894DEBF0FBE49
:100A8000CDBFDF91CF910895BF92CF92DF92EF92C9
:100A9000FF920F931F93CF93DF9300D000D0CDB779
:100AA000DEB78C01F62EB72EE42E69010E948A0172
:100AB000811110C0F12C8F2D0F900F900F900F907F
:100AC000DF91CF911F910F91FF90EF90DF90CF902A
:100AD000BF90089582E18983BA82EB82FC8260E054
:100AE000F80182810E94E209AE014F5F5F4F64E02E
:100AF000C8010E94B00161E0F80182810E94E20910
:100B0000C8010E948A01F82E8823A1F260E0F80152
:100B100082810E94E20984E40E944601A6016E2DB2
:100B2000C8010E94AF0361E0F80182810E94E209DE
:100B3000C2CFCF93CFB7F89480911E03811127C005
:100B4000E0EAF0E08491E9E8F0E09491E82FF0E049
:100B5000EE0FFF1FEF53FF4FA591B491EC91E923E6
:100B600021F461E08AE00E94E20961E08AE00E94EB
:100B7000A6098CB580618CBD8CB580648CBD61E0AC
:100B80008DE00E94A60961E08BE00E94A609809199
:100B90001E038F5F80931E03CFBFCF910895FC018A
:100BA000918D228D892F90E0805C9F4F821B91094F
:100BB0008F7399270895FC01918D828D981731F0DC
:100BC000828DE80FF11D858D90E008958FEF9FEFE6
:100BD0000895FC01918D828D981761F0A28DAE0F62
:100BE000BF2FB11D5D968C91928D9F5F9F73928FE9
:100BF00090E008958FEF9FEF0895FC01538D448D91
:100C0000252F30E0842F90E0821B930B541710F0B7
:100C1000CF9608950197089589E597E0892B49F0CB
:100C200080E090E0892B29F00E94590781110C94F3
:100C300000000895FC01A48DA80FB92FB11DA35A7F
:100C4000BF4F2C91848D90E001968F739927848FEC
:100C5000A689B7892C93A089B1898C91837080640F
:100C60008C93938D848D981306C00288F389E02DB0
:100C700080818F7D80830895CF93DF93EC01888DF1
:100C80008823B9F0AA89BB89E889F9898C9185FD07
:100C900003C0808186FD0DC00FB607FCF7CF8C9195
:100CA00085FFF2CF808185FFEDCFCE010E941A062D
:100CB000E9CFDF91CF910895EF92FF920F931F93A9
:100CC000CF93DF93EC0181E0888F9B8D8C8D9813FF
:100CD0001AC0E889F989808185FF15C09FB7F8940B
:100CE000EE89FF896083E889F98980818370806457
:100CF00080839FBF81E090E0DF91CF911F910F91A2
:100D0000FF90EF900895F62E0B8D10E00F5F1F4FB0
:100D10000F731127E02E8C8D8E110CC00FB607FCBF
:100D2000FACFE889F989808185FFF5CFCE010E944D
:100D30001A06F1CFEB8DEC0FFD2FF11DE35AFF4F9B
:100D4000F0829FB7F8940B8FEA89FB8980818062DB
:100D5000CFCFCF92DF92EF92FF921F93CF93DF938B
:100D6000EC016A017B01122FE889F98982E0808316
:100D7000C11481EED806E104F104A1F060E079E04D
:100D80008DE390E0A70196010E943A0A21503109B3
:100D9000410951095695479537952795211580E1C9
:100DA000380798F0E889F989108260E874E88EE1E4
:100DB00090E0A70196010E943A0A215031094109A9
:100DC00051095695479537952795EC85FD853083D4
:100DD000EE85FF852083188EEC89FD891083EA89D2
:100DE000FB89808188698083EA89FB8980818F7D86
:100DF0008083DF91CF911F91FF90EF90DF90CF9094
:100E000008951F920F920FB60F9211242F938F9374
:100E10009F93EF93FF93E0912F03F0913003808134
:100E2000E0913503F091360382FD1BC090818091E3
:100E300038038F5F8F7320913903821741F0E0915F
:100E40003803F0E0E15EFC4F958F80933803FF910B
:100E5000EF919F918F912F910F900FBE0F901F9048
:100E600018958081F4CF1F920F920FB60F92112424
:100E70002F933F934F935F936F937F938F939F93A2
:100E8000AF93BF93EF93FF938FE193E00E941A0615
:100E9000FF91EF91BF91AF919F918F917F916F9152
:100EA0005F914F913F912F910F900FBE0F901F9028
:100EB00018958FE193E00E94CF0521E0892B09F47A
:100EC00020E0822F0895EFE1F3E01382128288EE92
:100ED00093E0A0E0B0E084839583A683B78385EF99
:100EE00092E09183808385EC90E09587848784EC01
:100EF00090E09787868780EC90E0918B808B81ECE7
:100F000090E0938B828B82EC90E0958B848B86ECC7
:100F100090E0978B868B118E128E138E148E08950F
:100F2000AF92BF92CF92DF92EF92FF920F931F93F7
:100F3000CF93DF936C017B018B01040F151FEB0135
:100F40005E01AE18BF08C017D10759F06991D601EC
:100F5000ED91FC910190F081E02DC6010995892B5E
:100F600079F7C501DF91CF911F910F91FF90EF901D
:100F7000DF90CF90BF90AF900895FB0101900020CB
:100F8000E9F73197AF01461B570BDC01ED91FC915E
:100F90000280F381E02D0994DC01ED91FC91019038
:100FA000F081E02D099463E073E00C94BD070F938A
:100FB0001F93CF93DF938C01D0E0C0E061157105E2
:100FC00019F00E94BD07EC01C8010E94D3078C0FE5
:100FD0009D1FDF91CF911F910F9108958F929F9246
:100FE000AF92BF92EF92FF920F931F93CF93DF9335
:100FF000CDB7DEB7A1970FB6F894DEBF0FBECDBF59
:101000007C01FA01CB0119A2223008F42AE08E01FA
:101010000F5D1F4F822E912CB12CA12CBF01A50179
:1010200094010E943A0AF901CA016A300CF5605D28
:10103000D8016E938D01232B242B252B79F790E07B
:1010400080E0109721F0BD01C7010E94BD07A19665
:101050000FB6F894DEBF0FBECDBFDF91CF911F91C9
:101060000F91FF90EF90BF90AF909F908F90089559
:10107000695CDECFCF92DF92EF92FF920F931F93C6
:10108000CF93DF932115310581F4DC01ED91FC91C3
:101090000190F081E02D642FDF91CF911F910F918E
:1010A000FF90EF90DF90CF9009942A30310501F541
:1010B0002AE077FF1DC06A017B01EC016DE20E940E
:1010C000CC078C0144275527BA014C195D096E09DC
:1010D0007F092AE0CE010E94EE07800F911FDF9169
:1010E000CF911F910F91FF90EF90DF90CF900895D7
:1010F000DF91CF911F910F91FF90EF90DF90CF90F4
:101100000C94EE079A01AB01770F660B770B0C94EA
:101110003A082115310541F4DC01ED91FC91019073
:10112000F081E02D642F09940C94EE079A01462F6C
:1011300050E070E060E00C94890808950E94550921
:101140000E949D080E949900CCE0D6E00E94070111
:101150002097E1F30E940C06F9CF1F920F920FB671
:101160000F9211242F933F938F939F93AF93BF932D
:101170008091C1039091C203A091C303B091C403B5
:101180003091C00323E0230F2D3768F126E8230FA9
:101190000296A11DB11D2093C0038093C1039093BB
:1011A000C203A093C303B093C4038091BC03909186
:1011B000BD03A091BE03B091BF030196A11DB11D57
:1011C0008093BC039093BD03A093BE03B093BF0371
:1011D000BF91AF919F918F913F912F910F900FBE33
:1011E0000F901F9018950196A11DB11DD4CF3FB748
:1011F000F8948091BC039091BD03A091BE03B0917F
:10120000BF0326B5A89B05C02F3F19F00196A11D6D
:10121000B11D3FBFBA2FA92F982F8827BC01CD0140
:10122000620F711D811D911D42E0660F771F881F9F
:10123000991F4A95D1F708958F929F92AF92BF92CE
:10124000CF92DF92EF92FF926B017C010E94F70830
:101250004B015C01C114D104E104F104E9F00E94E6
:10126000390A0E94F708681979098A099B09683EBA
:1012700073408105910570F321E0C21AD108E1089D
:10128000F10888EE880E83E0981EA11CB11CC114E1
:10129000D104E104F10429F7FF90EF90DF90CF90A3
:1012A000BF90AF909F908F900895789484B583609D
:1012B00084BD85B5836085BDEEE6F0E08081816008
:1012C0008083E1E8F0E082E0808380818160808338
:1012D000E0E8F0E0808181608083E1EBF0E08081F4
:1012E00084608083E0EBF0E080818160808387E828
:1012F00080937A001092C1000895843081F028F420
:101300008230E9F08330F9F00895883071F0893047
:1013100091F08530B9F4809180008F7D03C0809179
:1013200080008F778093800008958091B0008F7740
:101330008093B00008958091B0008F7DF9CF84B57F
:101340008F7784BD089584B58F7DFBCFCF93DF93D6
:1013500090E0FC01E158FF4F24918A569F4FFC0119
:1013600084918823C9F090E0880F991FFC01EF5306
:10137000FF4FA591B491FC01E954FF4FC591D49161
:1013800061110DC09FB7F8948C91209582238C93A6
:101390008881282328839FBFDF91CF9108956230F1
:1013A00051F49FB7F8943C91822F809583238C93BE
:1013B000E8812E2BEFCF8FB7F894EC912E2B2C9346
:1013C0008FBFEACF1F93CF93DF93282F30E0F9012F
:1013D000E859FF4F8491F901E158FF4FD491F90189
:1013E000EA56FF4FC491CC23A9F0162F81110E9419
:1013F0007D09EC2FF0E0EE0FFF1FE954FF4FA591A0
:10140000B4918FB7F894EC91111108C0D095DE23F8
:10141000DC938FBFDF91CF911F910895DE2BF8CF22
:10142000CF93DF93282F30E0F901E859FF4F8491E3
:10143000F901E158FF4FD491F901EA56FF4FC491E9
:10144000CC23A1F081110E947D09EC2FF0E0EE0F7A
:10145000FF1FE355FF4FA591B491EC91ED2381E07F
:1014600090E009F480E0DF91CF91089580E090E072
:10147000FACF0895A1E21A2EAA1BBB1BFD010DC0D5
:10148000AA1FBB1FEE1FFF1FA217B307E407F50734
:1014900020F0A21BB30BE40BF50B661F771F881F10
:1014A000991F1A9469F760957095809590959B01A6
:1014B000AC01BD01CF010895EE0FFF1F0590F4911F
:1014C000E02D0994FB01DC0102C001900D92415016
:0A14D0005040D8F70895F894FFCFBC
:1014DA0002010001C9C380012000031800080000AE
:1014EA003D00000000000808496E697420666169C1
:1014FA006C2100496E697420737563636573732187
:10150A0000436865636B206465766963652066617C
:10151A00696C6564004661696C656420746F206754
:10152A0065742074686520636F6D702070726F70C7
:10153A006572747900577269746520627974653AC4
:10154A00200072785F627566663A2000727373696A
:10155A003A20000702010001C9C3800813000000F5
:10156A0000000000061100020052000511000103EC
:10157A0060051101010000081102040000000000CA
:10158A000D111009000814000F31000000000911A4
:10159A0011050001B42B0000051112010084081185
:1015AA00120403FFFF00021011120C0800000030A1
:1015BA0030000704800000001011120C1400000013
:1015CA000000000000000000001011120C200000B2
:1015DA00000000000000000000000D1112092C009C
:1015EA0000000000000000001011200C000200079B
:1015FA00002EE001C9C3800000051120010CD20CA5
:10160A001120081801800803800070200D1120099C
:10161A0022030D00A7C6005402C20B1120072C0496
:10162A0036800330AF800511200135E20D11200903
:10163A003811ABAB0002FFFF002B0D11200942A4A9
:10164A0002D68300AD0180FF051120014C0005116F
:10165A0020014E4005112001510A1011210C00FFF2
:10166A00C4307FF5B5B8DE0517160C1011210C0C25
:10167A00030015FF0000FFC4307FF5B51011210CDF
:10168A0018B8DE0517160C030015FF000008112212
:10169A000400087F003D0B112307002C0E0B040CDD
:1016AA0073031011300C000000000000000000005D
:1016BA000000000C11400800380E6666444420FE03
:1016CA0000000000005C069007FD053C06CF05E916
:0616DA0005DB050D0A000E
:00000001FF
