:100000000C945E000C9486000C9486000C94860080
:100010000C9486000C9486000C9486000C94860048
:100020000C9486000C9486000C9486000C94860038
:100030000C9486000C9486000C9486000C94860028
:100040000C94CC030C9486000C943C040C94160481
:100050000C9486000C9486000C9486000C94860008
:100060000C946E040C94860000000000240027000D
:100070002A0000000000250028002B0004040404CE
:100080000404040402020202020203030303030342
:10009000010204081020408001020408102001021F
:1000A00004081020000000080002010000030407FB
:1000B00000000000000000008D05D40611241FBEC2
:1000C000CFEFD8E0DEBFCDBF22E0AAE4B1E001C0AF
:1000D0001D92A03AB207E1F711E0A0E0B1E0E4E43C
:1000E000F2E102C005900D92AA34B107D9F710E0F1
:1000F000CDE5D0E004C02197FE010E941407CC3565
:10010000D107C9F70E9413060C9415090C9400003E
:1001100090E0FC01EC55FF4F2491FC01E057FF4FAC
:100120003491FC01E458FF4FE491EE23C9F02223FF
:1001300039F0233001F1A8F4213019F1223029F1EE
:10014000F0E0EE0FFF1FEE58FF4FA591B4918FB76F
:10015000F894EC91611126C030953E233C938FBFFB
:1001600008952730A9F02830C9F0243049F780914C
:1001700080008F7D03C0809180008F778093800006
:10018000DFCF84B58F7784BDDBCF84B58F7DFBCF88
:100190008091B0008F778093B000D2CF8091B00073
:1001A0008F7DF9CF3E2BDACF0895CF93DF93AC014B
:1001B000E091E201F091E3013097F1F09091E101DB
:1001C0008091E0019817C0F090E0292F30E02617C9
:1001D000370754F4D901A65BBE4F240F351FE90140
:1001E00028812C939F5FF1CF1092E1016093E00191
:1001F000CB01DF91CF910994DF91CF910895AF9218
:10020000BF92CF92DF92EF92FF920F931F93CF9303
:10021000DF936C017B018B01040F151FEB015E0165
:10022000AE18BF08C017D10759F06991D601ED91FA
:10023000FC910190F081E02DC6010995892B79F799
:10024000C501DF91CF911F910F91FF90EF90DF904B
:10025000CF90BF90AF900895FC01538D448D252F12
:1002600030E0842F90E0821B930B541710F0CF9650
:10027000089501970895FC01918D828D981761F082
:10028000A28DAE0FBF2FB11D5D968C91928D9F5F99
:100290009F73928F90E008958FEF9FEF0895FC0178
:1002A000918D828D981731F0828DE80FF11D858D2B
:1002B00090E008958FEF9FEF0895FC01918D228DBE
:1002C000892F90E0805C9F4F821B91098F73992743
:1002D00008958DEE91E00E945D0121E0892B09F4E3
:1002E00020E0822F089580E090E0892B29F00E9481
:1002F000690181110C9400000895FC01A48DA80FE0
:10030000B92FB11DA35ABF4F2C91848D90E0019657
:100310008F739927848FA689B7892C93A089B18977
:100320008C91837080648C93938D848D981306C018
:100330000288F389E02D80818F7D80830895EF927C
:10034000FF920F931F93CF93DF93EC0181E0888F8F
:100350009B8D8C8D98131AC0E889F989808185FF5F
:1003600015C09FB7F894EE89FF896083E889F98901
:1003700080818370806480839FBF81E090E0DF9103
:10038000CF911F910F91FF90EF900895F62E0B8D56
:1003900010E00F5F1F4F0F731127E02E8C8D8E1111
:1003A0000CC00FB607FCFACFE889F989808185FF78
:1003B000F5CFCE010E947D01F1CFEB8DEC0FFD2F2B
:1003C000F11DE35AFF4FF0829FB7F8940B8FEA8933
:1003D000FB8980818062CFCFCF93DF93EC01888D42
:1003E0008823B9F0AA89BB89E889F9898C9185FDB0
:1003F00003C0808186FD0DC00FB607FCF7CF8C913E
:1004000085FFF2CF808185FFEDCFCE010E947D0177
:10041000E9CFDF91CF91089520919001260F3327E6
:10042000331F21323105ECF42091B401FC0190E03E
:1004300080E0243069F082E00895A091900121913C
:10044000AC0140595E4FA40FB52FB11D2C930196FE
:10045000861798F380919001680F6093900180E077
:10046000089581E008951092B40181E08093B6016F
:100470001092B50161E082E10E94880061E083E1B1
:100480000E948800E9EBF0E080818E7F808380818C
:100490008D7F808388E48093B80085E48093BC00DE
:1004A00008950895E091E1018091E001E81730F4AA
:1004B000F0E0E65BFE4F808190E008958FEF9FEFC4
:1004C00008959091E1018091E0012FEF3FEF98179F
:1004D00048F4E92FF0E0E65BFE4F208130E09F5FBB
:1004E0009093E101C90108958091E0019091E101AB
:1004F000891B990B0895CF93DF93CB01EA01642FF9
:100500000E940C02CE01DF91CF910895CF93DF932B
:100510001F92CDB7DEB7698361E0CE0101960E94DC
:100520000C0281E090E00F90DF91CF91089590E070
:1005300080E00895CF93DF93FC0101900020E9F75C
:100540003197AF01481B590BBC018DEE91E00E9421
:10055000FF00EC0142E050E06AE271E08DEE91E0D4
:100560000E94FF008C0F9D1FDF91CF910895CF93C4
:10057000DF93EC018091960290919702009759F0D9
:1005800020919802309199022C173D0720F081E0CC
:10059000DF91CF910895BE016F5F7F4F0E943F08AA
:1005A000009789F09093970280939602D0939902D6
:1005B000C093980220919A0230919B02232B39F725
:1005C000FC011082E4CF80E0E3CFCF93DF9385ED91
:1005D0008093BC0080916C0190916D01A0916E019F
:1005E000B0916F010796A11DB11D23E0B695A795A7
:1005F000979587952A95D1F72091BC0024FD03C0DB
:100600001092B40136C040916C0150916D0160911F
:100610006E0170916F01452B462B472B69F30097B4
:10062000A105B10541F02AE22A95F1F700C0019732
:10063000A109B109E1CF80916B0191E090936A012A
:100640008823B9F0C091B800D091BA008091BC0065
:100650008A7B8093BC0060E082E10E94880060E0B9
:1006600083E10E9488000E943302D093BA00C093B5
:10067000B800DF91CF9108950F931F93CF93DF932D
:1006800000D0CDB7DEB78DE291E00E949A02909142
:10069000E0018091E101981729F18AE892E00E9437
:1006A000610289831A8200919A0210919B020F5F66
:1006B0001F4FC8010E94B702882349F32091960278
:1006C0003091970280919A0290919B02BE016F5FD8
:1006D0007F4F820F931F0E940E0910939B0200937D
:1006E0009A02D5CF80919A0290919B02892B71F04A
:1006F0006AE371E080919602909197020E94050949
:10070000892B21F461E08DE00E94880080919A029B
:1007100090919B02892B71F06DE371E080919602BC
:10072000909197020E940509892B21F460E08DE0E9
:100730000E94880090E080E00E94B702209196021B
:1007400030919702811119C02115310519F0C901A5
:100750000E94B607109297021092960210929B0286
:1007600010929A0210929902109298020F900F9094
:10077000DF91CF911F910F91089510929B021092DB
:100780009A026CE271E0C9010F900F90DF91CF9156
:100790001F910F910C940E091F920F920FB60F929A
:1007A00011242F933F938F939F93AF93BF93809187
:1007B000E9019091EA01A091EB01B091EC01309137
:1007C000E80123E0230F2D3758F50196A11DB11D37
:1007D0002093E8018093E9019093EA01A093EB0153
:1007E000B093EC018091E4019091E501A091E601C4
:1007F000B091E7010196A11DB11D8093E401909392
:10080000E501A093E601B093E701BF91AF919F91FD
:100810008F913F912F910F900FBE0F901F901895C1
:1008200026E8230F0296A11DB11DD2CF1F920F9271
:100830000FB60F9211242F933F934F935F936F93B3
:100840007F938F939F93AF93BF93EF93FF938DEE1F
:1008500091E00E947D01FF91EF91BF91AF919F9137
:100860008F917F916F915F914F913F912F910F9059
:100870000FBE0F901F9018951F920F920FB60F92F8
:1008800011242F938F939F93EF93FF93E091FD019A
:10089000F091FE018081E0910302F091040282FD5B
:1008A0001BC09081809106028F5F8F732091070299
:1008B000821741F0E0910602F0E0E351FE4F958F80
:1008C00080930602FF91EF919F918F912F910F904E
:1008D0000FBE0F901F9018958081F4CF1F920F923A
:1008E0000FB60F9211242F933F934F935F936F9303
:1008F0007F938F939F93AF93BF93EF93FF938091D9
:10090000B900887F803609F44AC0F0F5883209F4CE
:10091000A7C018F5803109F49BC0B8F4882309F406
:10092000F9C0883009F494C0FF91EF91BF91AF9165
:100930009F918F917F916F915F914F913F912F91F7
:100940000F900FBE0F901F901895883109F488C042
:10095000803251F78093B30114C0803409F49DC0F4
:1009600040F48033B9F38833F9F68093B30185EC12
:10097000B0C0803509F485C0883509F496C0883444
:1009800099F60E94E502D0CF883909F48CC038F579
:10099000883729F050F4883611F0803729F683E043
:1009A0008093B4011092B20157C0883809F47BC01B
:1009B000803919F0803809F0B7CF8091B2018032C8
:1009C00008F071C0E091B20181E08E0F8093B20116
:1009D0008091BB00F0E0EE56FE4F80833DC0803B2F
:1009E00039F0E0F4803A09F479C0883A09F09CCFF4
:1009F00084E08093B4011092910110929001E091F3
:100A0000DC01F091DD0109958091900181110FC009
:100A100081E0809390011092700109C0803C09F43C
:100A2000A6CF883C09F4A3CF883B09F07DCFE091A5
:100A3000910181E08E0F80939101F0E0E059FE4F2B
:100A400080818093BB00909191018091900129C099
:100A50008091D9018093BB0085EC8093BC0064CF6A
:100A60009091D8018091D701981758F5E091D8015D
:100A700081E08E0F8093D801F0E0E954FE4F808131
:100A8000E9CFE091D80181E08E0F8093D801809169
:100A9000BB00F0E0E954FE4F80839091D801809133
:100AA000D7019817C8F285E8D8CFE091D80181E046
:100AB0008E0F8093D8018091BB00F0E0E954FE4F87
:100AC00080838091B60181115CCF81E08093B50174
:100AD00084EA8093BC001092B40126CF85EC809309
:100AE000BC001092B4018091B201803230F4E091E8
:100AF000B201F0E0EE56FE4F10826091B20170E05C
:100B0000E091DA01F091DB0182E991E00995109220
:100B1000B2010ACF1092B30134CF1092F0011092BB
:100B2000EF0188EE93E0A0E0B0E08093F1019093B4
:100B3000F201A093F301B093F4012AE031E0309385
:100B4000EE012093ED0125EC30E03093FA01209383
:100B5000F90124EC30E03093FC012093FB0120EC00
:100B600030E03093FE012093FD0121EC30E0309322
:100B700000022093FF0122EC30E030930202209328
:100B8000010226EC30E0309304022093030210921D
:100B900006021092070210920802109209021092A7
:100BA0008D0210928C0280938E0290938F02A093FC
:100BB0009002B09391028CE191E090938B0280932C
:100BC0008A02109297021092960210929902109245
:100BD000980210929B0210929A0290E080E00E948C
:100BE000B7022091960230919702811113C021150E
:100BF000310519F0C9010E94B607109297021092B0
:100C0000960210929B0210929A02109299021092F0
:100C10009802089510929B0210929A026CE271E081
:100C2000C9010C940E09789484B5826084BD84B5A2
:100C3000816084BD85B5826085BD85B5816085BDD7
:100C400080916E00816080936E001092810080918F
:100C50008100826080938100809181008160809317
:100C60008100809180008160809380008091B1003C
:100C700084608093B1008091B00081608093B00067
:100C800080917A00846080937A0080917A008260FB
:100C900080937A0080917A00816080937A008091BD
:100CA0007A00806880937A001092C100E091FD0183
:100CB000F091FE0182E08083E091F901F091FA0168
:100CC0001082E091FB01F091FC018FEC8083109287
:100CD0000502E0910102F091020286E08083E0913A
:100CE000FF01F0910002808180618083E091FF012B
:100CF000F0910002808188608083E091FF01F09193
:100D00000002808180688083E091FF01F091000201
:100D100080818F7D8083EDE9F0E02491E9E8F0E0C7
:100D20008491882399F090E0880F991FFC01E8597D
:100D3000FF4FA591B491FC01EE58FF4F859194911E
:100D40008FB7F894EC91E22BEC938FBF1092E101F6
:100D50001092E0011092DF011092DE010E94330236
:100D600084ED90E09093DD018093DC0185ED90E0CF
:100D70009093DB018093DA0180E48093BA008CE3E6
:100D800093E09093E3018093E20181E491E00E947B
:100D90009A02C0E0D0E02097F1F30E946901882315
:100DA000D1F30E940000F7CF8091960290919702B4
:100DB000009711F00C94B60708952F923F924F922E
:100DC0005F926F927F928F929F92AF92BF92CF92DB
:100DD000DF92EF92FF920F931F93CF93DF93CDB7E4
:100DE000DEB7CA1BDB0B0FB6F894DEBF0FBECDBF5C
:100DF00009942A88398848885F846E847D848C842D
:100E00009B84AA84B984C884DF80EE80FD800C8135
:100E10001B81AA81B981CE0FD11D0FB6F894DEBF18
:100E20000FBECDBFED010895EE0FFF1F0590F491A9
:100E3000E02D09940F931F93CF93DF938230910598
:100E400010F482E090E0E0919E02F0919F0230E089
:100E500020E0B0E0A0E0309799F42115310509F4C5
:100E60004AC0281B390B24303105D8F58A819B8173
:100E70006115710589F1FB0193838283FE0111C025
:100E8000408151810281138148175907E0F04817CA
:100E9000590799F4109761F012960C9312971396D4
:100EA0001C933296CF01DF91CF911F910F9108953E
:100EB00000939E0210939F02F4CF2115310551F04B
:100EC0004217530738F0A901DB019A01BD01DF0188
:100ED000F801C1CFEF01F9CF90939F0280939E025A
:100EE000CDCFFE01E20FF31F819391932250310980
:100EF00039832883D7CF20919C0230919D02232BE8
:100F000041F4209102013091030130939D0220931E
:100F10009C0220910001309101012115310541F41D
:100F20002DB73EB74091040150910501241B350BAC
:100F3000E0919C02F0919D02E217F307A0F42E1BB2
:100F40003F0B2817390778F0AC014E5F5F4F24172D
:100F5000350748F04E0F5F1F50939D0240939C024F
:100F6000819391939FCFF0E0E0E09CCFCF93DF930C
:100F70000097E9F0FC01329713821282A0919E0241
:100F8000B0919F02ED0130E020E01097A1F42081A4
:100F90003181820F931F20919C0230919D0228176E
:100FA000390709F061C0F0939D02E0939C02DF9144
:100FB000CF910895EA01CE17DF07E8F54A815B81FA
:100FC0009E0141155105B1F7E901FB83EA8349917F
:100FD0005991C40FD51FEC17FD0761F480819181F1
:100FE0000296840F951FE9019983888382819381FA
:100FF0009B838A83F0E0E0E012968D919C91139799
:101000000097B9F52D913C911197CD010296820F71
:10101000931F20919C0230919D022817390739F6C1
:10102000309751F510929F0210929E02B0939D024C
:10103000A0939C02BCCFD383C28340815181840F93
:10104000951FC817D90761F44E5F5F4F888199815A
:10105000480F591F518340838A819B8193838283E8
:101060002115310509F0B0CFF0939F02E0939E0265
:101070009ECFFD01DC01C0CF13821282D7CFB0E03A
:10108000A0E0E5E4F8E00C94DF068C01009751F451
:10109000CB010E941A078C01C801CDB7DEB7E0E191
:1010A0000C94FB06FC01E60FF71F9C01225031094E
:1010B000E217F30708F49DC0D901CD91DC91119797
:1010C000C617D70798F0C530D10530F3CE01049785
:1010D0008617970708F3C61BD70B2297C193D193A6
:1010E0006D937C93CF010E94B607D6CF5B01AC1AFB
:1010F000BD0A4C018C0E9D1EA0919E02B0919F02D4
:10110000512C412CF12CE12C109731F580919C024F
:1011100090919D028815990509F05CC04616570606
:1011200008F058C08091000190910101009741F4AE
:101130008DB79EB74091040150910501841B950B1A
:10114000E817F90708F055C0F0939D02E0939C0260
:10115000F90171836083A0CF8D919C9111971296B4
:101160006C90129713967C901397A815B90559F5B2
:101170006C0142E0C40ED11CCA14DB0420F1AC01A6
:101180004A195B09DA011296159780F06282738220
:1011900051834083D9016D937C93E114F10471F084
:1011A000D7011396FC93EE93129776CF22968C0F6D
:1011B0009D1FF90191838083F301EFCFF0939F028C
:1011C000E0939E0269CF4816590608F42C017D0170
:1011D000D3019ACFCB010E941A077C01009749F0F6
:1011E000AE01B8010E94FC08C8010E94B607870141
:1011F00053CF10E000E050CFFB01DC0102C00190B2
:101200000D9241505040D8F70895FB01DC018D91BB
:10121000019080190110D9F3990B0895FB01DC01AD
:1012200001900D920020E1F7089510E0CDE5D0E0A7
:1012300004C0FE010E9414072196CE35D107C9F7DC
:04124000F894FFCF50
:101244000000A0028000000000009F01FF002C01AC
:10125400EC015D013B014F010000000086027B02AE
:10126400970251027402610252020D0A0052656330
:10127400696576652044617461006F6E006F66660F
:0A1284000053746172746564000089
:00000001FF
