:100000000C9469000C9491000C9491000C94910054
:100010000C9491000C9491000C9491000C9491001C
:100020000C9491000C9491000C9491000C9491000C
:100030000C9491000C9491000C9491000C949100FC
:100040000C9495090C9491000C943F080C94710841
:100050000C9491000C9491000C9491000C949100DC
:100060000C94E1050C9491000000000900030200CB
:10007000000405080000000000000000000000016E
:10008000020408102040800102040810200102042C
:100090000810204080400404040404040404020204
:1000A000020202020303030303030202030000002F
:1000B0000023002600290000000000250028002B56
:1000C0000000000000240027002A0000DE0099053F
:1000D000A10811241FBECFEFD8E0DEBFCDBF12E0D4
:1000E000A0E0B1E0EAEAF6E102C005900D92A23F7D
:1000F000B107D9F724E0A2EFB2E001C01D92AE3300
:10010000B207E1F710E0C9E6D0E004C02197FE0194
:100110000E94440BC636D107C9F70E9486090C9489
:10012000530B0C94000026E040E855E260E070E0DC
:1001300088E993E00E94E70783EF92E00E94DA03E8
:1001400064E271E0882311F06FE271E088E993E0E6
:100150000E940E096FE783EF92E00E943502811141
:1001600006C06DE371E088E993E00C940E090895F0
:100170004CE060E071E083EF92E00E94A80469E542
:1001800071E088E993E00E940E094AE050E0609136
:10019000F20288E993E00E947E0960EF72E088E94C
:1001A00093E00E940E098091F2028F5F8093F20229
:1001B0006AE070E080E090E00C94040A2AE049E0F4
:1001C00062E083EF92E00C94EC008EBD00000DB471
:1001D00007FEFDCF8EB50895FC0160834183228325
:1001E0000895CF93DF93EC010E94DA0461E08A81E5
:1001F0000E948E0A61E08A810E94CA0A8CB58F7DB6
:100200008CBD8CB58C7F81608CBD8DB58E7F8DBD96
:100210008CB5837F8CBDDF91CF910895CF93DF9311
:10022000EC0161E089810E948E0A61E089810E946F
:10023000CA0A60E08881DF91CF910C948E0AFC019C
:1002400080810E94F80A21E0892B09F020E0822FAA
:1002500008950F931F93CF93DF93EC0105EC19E002
:1002600001501109D1F060E08A810E94CA0A84E439
:100270000E94E50080E00E94E50061E08F3F49F4C4
:100280008A810E94CA0A81E0DF91CF911F910F916C
:1002900008958A810E94CA0AE3CF80E0F5CF0F93C8
:1002A0001F93CF93C62F8A01C15030F0F80181917E
:1002B0008F010E94E500F8CFCF911F910F91089513
:1002C0000F931F93CF93DF9300D000D000D01F92E5
:1002D000CDB7DEB78C0187E0ECE0F1E0DE011196EE
:1002E00001900D928A95E1F761E0F80181810E9409
:1002F000CA0A64E670E080E090E00E94040A60E0D0
:10030000F80181810E94CA0A64E170E080E090E017
:100310000E94040A60E0F80182810E94CA0AAE01CC
:100320004F5F5F4F67E0C8010E944F0161E0F80135
:1003300082810E94CA0A68EC70E080E090E00E942E
:10034000040A27960FB6F894DEBF0FBECDBFDF912B
:10035000CF911F910F910895AF92BF92CF92DF92EC
:10036000EF92FF920F931F93CF93DF9300D000D0B3
:10037000CDB7DEB78C01B62EA72EE42E69010E9400
:100380002901F82E8823D9F081E18983AA82EB82A2
:10039000BC8260E0F80182810E94CA0AAE014F5F10
:1003A0005F4F64E0C8010E944F01A6016E2DC80195
:1003B0000E944F0161E0F80182810E94CA0A8F2DDC
:1003C0000F900F900F900F90DF91CF911F910F9191
:1003D000FF90EF90DF90CF90BF90AF900895CF93B4
:1003E000DF9300D01F92CDB7DEB72091130130917B
:1003F00014014091150129833A834B839E012F5F9D
:100400003F4F43E060E071E00E94AC010F900F901D
:100410000F90DF91CF9108950F931F93CF93DF93A8
:1004200000D000D01F92CDB7DEB72FEF240F2330BE
:10043000D0F48C01298350E0CE0102960E944A0B31
:100440009E012F5F3F4F45E060E071E1C8010E94CF
:10045000AC010F900F900F900F900F90DF91CF9104
:100460001F910F91089580E0F4CF0F931F93CF93C6
:10047000DF9300D000D0CDB7DEB767FD1EC000917E
:10048000190110911A0120911B0130911C0109835F
:100490001A832B833C836A839E012F5F3F4F44E086
:1004A00060E072E20E94AC010F900F900F900F90ED
:1004B000DF91CF911F910F91089580E0F5CFDF92EA
:1004C000EF92FF920F931F93CF93DF93EC01062FD0
:1004D000D42E79010E942901182F882381F060E031
:1004E0008A810E94CA0A8D2D0E94E500A701602F13
:1004F000CE010E944F0161E08A810E94CA0A812FC9
:10050000DF91CF911F910F91FF90EF90DF900895B1
:100510006F927F928F929F92AF92BF92CF92DF9213
:10052000EF92FF920F931F93CF93DF93CDB7DEB778
:100530006E970FB6F894DEBF0FBECDBF5C017B0196
:100540006A0181E0C81AD108FB018081082F10E000
:100550000F5F1F4F0C151D05E8F4F701E00FF11FA9
:1005600090809A940E5F1F4F8180692C712CB70187
:10057000600F711FA301CE0101960E944A0B9E01DC
:100580002F5F3F4F482D692DC5010E945F02060D68
:10059000171DE0CF6E960FB6F894DEBF0FBECDBF2D
:1005A000DF91CF911F910F91FF90EF90DF90CF904F
:1005B000BF90AF909F908F907F906F900895CF9352
:1005C000DF9300D000D0CDB7DEB7198220E32A83B5
:1005D0001B821C829E012F5F3F4F41E364E00E941B
:1005E0005F020F900F900F900F90DF91CF910895C1
:1005F000CF93DF9300D01F92CDB7DEB719821A8256
:100600001B829E012F5F3F4F40E263E00E945F022A
:100610000F900F900F90DF91CF910895CF93DF93BC
:100620001F92CDB7DEB723E029839E012F5F3F4F96
:1006300045E161E00E945F020F90DF91CF91089544
:100640008F929F92AF92BF92CF92DF92EF92FF92E2
:100650001F93CF93DF931F92CDB7DEB77C014B0181
:100660004983ADB6BEB69E012F5F3F4F41E062E1C8
:1006700072E10E94AC011981412F50E0CA0101963C
:100680002DB73EB7281B390B0FB6F8943EBF0FBEEF
:100690002DBF8DB79EB701966C01EDB7FEB71183E4
:1006A000B40101960E944A0B61E0610F960146E693
:1006B000C7010E945F020FB6F894BEBE0FBEADBE6A
:1006C0000F90DF91CF911F91FF90EF90DF90CF902F
:1006D000BF90AF909F908F9008950F931F93CF93EB
:1006E000C62F8A01C15038F080E00E94E500F80171
:1006F00081938F01F7CFCF911F910F910895DF92D2
:10070000EF92FF920F931F93CF93DF93EC01062F8D
:10071000D42E79010E942901882349F160E08A8161
:100720000E94CA0A8D2D0E94E50061E08A810E9424
:10073000CA0ACE010E9429018823C9F060E08A819B
:100740000E94CA0A84E40E94E500A701602FCE013E
:100750000E946D0361E08A810E94CA0A812FDF91A5
:10076000CF911F910F91FF90EF90DF90089510E0CF
:10077000F5CFCF93DF93CDB7DEB729970FB6F894B7
:10078000DEBF0FBECDBF9E012F5F3F4F41E069E04E
:100790000E947F032B813C8181E02434334609F0A1
:1007A00080E029960FB6F894DEBF0FBECDBFDF9173
:1007B000CF910895EF92FF920F931F93CF93DF9302
:1007C000CDB7DEB764970FB6F894DEBF0FBECDBFCE
:1007D0008C010E940E01C8010E94F100C8010E9414
:1007E0006001C8010E94B903F82E882309F4A2C051
:1007F0004EE651E06DE571E0C8010E948802198261
:100800001A8281E28B8380E28C8387E28D838BE086
:100810008E839E012F5F3F4F43E166E0C8010E9437
:100820005F0282E689839E012F5F3F4F41E070E0C7
:1008300060E0C8010E94AC0180E489839E012F5FC3
:100840003F4F41E063E070E0C8010E94AC0188E0E6
:10085000898384E18A831B828FE08C8381E38D838B
:100860001E821F82188619869E012F5F3F4F49E026
:1008700060E070E1C8010E94AC018DE2898384EDE3
:100880008A8342E0BE016F5F7F4FC8010E940C0265
:1008900081E889839E012F5F3F4F41E060E072E174
:1008A000C8010E94AC0182E089839E012F5F3F4F07
:1008B00041E066E072E1C8010E94AC018AE08983F0
:1008C000EE24E394EA821B829E012F5F3F4F43E0B8
:1008D00068E072E1C8010E94AC011982EA8294E0EA
:1008E0009B838AEA8C831D8222E32E839F838887E1
:1008F00019861A861B861C869E012F5F3F4F4CE08F
:100900006DE072E1C8010E94AC0119821A821B825B
:100910001C821D821E821F8218869E012F5F3F4F00
:1009200048E069E172E1C8010E94AC016FE7C801CB
:100930000E9435028F2D64960FB6F894DEBF0FBE6D
:10094000CDBFDF91CF911F910F91FF90EF90089550
:10095000FF920F931F93CF93DF93EC018B01F42E43
:100960000E940E034F2DB801CE010E942003CE013C
:100970000E94EF01CE010E94F802CE010E94DF0228
:1009800005EF11E001501109CE0159F00E941F013D
:1009900081110AC061E070E080E090E00E94040AEA
:1009A000F1CF0E94DA0380E0DF91CF911F910F9188
:1009B000FF900895CF93CFB7F8948091F6028111FC
:1009C00027C0E0EAF0E08491E9E8F0E09491E82FB4
:1009D000F0E0EE0FFF1FEF53FF4FA591B491EC91A4
:1009E000E92321F461E08AE00E94CA0A61E08AE01A
:1009F0000E948E0A8CB580618CBD8CB580648CBDE4
:100A000061E08DE00E948E0A61E08BE00E948E0A18
:100A10008091F6028F5F8093F602CFBFCF91089549
:100A200090E080E008958091260390912703891B30
:100A3000990B089590912703809126032FEF3FEFA4
:100A4000981748F4E92FF0E0E85DFC4F208130E092
:100A50009F5F90932703C9010895E0912703809138
:100A60002603E81730F4F0E0E85DFC4F808190E069
:100A700008958FEF9FEF08950895CF93DF931F920E
:100A8000CDB7DEB76983209103032223F9F02091CB
:100A90000403203258F021E030E0FC01338322834C
:100AA00090E080E00F90DF91CF9108958091050351
:100AB000E82FF0E0EA5FFC4F998190838F5F80938D
:100AC00005038093040381E090E0ECCF61E0CE0168
:100AD00001960E94AA05F7CFCF92DF92EF92FF9284
:100AE0000F931F93CF93DF937C01CB018A01209159
:100AF0000303222389F0EB016B01C40ED51ECC1534
:100B0000DD0569F06991D701ED91FC910190F081CB
:100B1000E02DC7010995F3CF642F0E94AA05C801F3
:100B2000DF91CF911F910F91FF90EF90DF90CF90C9
:100B30000895E7EFF2E01382128288EE93E0A0E0DE
:100B4000B0E084839583A683B7838FEC92E0918392
:100B50008083089520916A03260F3327331F2132A3
:100B60003105ECF420919703FC0190E080E0243003
:100B700069F082E00895A0916A032191AC01445983
:100B80005C4FA40FB52FB11D2C930196861798F3D7
:100B900080916A03680F60936A0380E0089581E0A2
:100BA000089585ED8093BC008091BC0084FDFCCF4E
:100BB00010929703089585EC8093BC0010929703E0
:100BC00008951F920F920FB60F9211242F933F9307
:100BD0004F935F936F937F938F939F93AF93BF9345
:100BE000EF93FF938091B900887F803609F44CC061
:100BF00008F03FC0883209F4A8C018F5803109F424
:100C00009CC0B8F4882309F405C1883009F495C064
:100C1000FF91EF91BF91AF919F918F917F916F91D4
:100C20005F914F913F912F910F900FBE0F901F90AA
:100C30001895883109F489C0803251F780934803B0
:100C400015C0803409F4A6C048F48033B9F3883362
:100C5000F9F6809348030E94DB05DACF803509F46A
:100C600089C0883509F49EC0883491F60E94D10568
:100C7000CFCF883909F494C038F5883729F050F47B
:100C8000883611F0803721F683E080939703109225
:100C9000490357C0883809F483C0803919F0803877
:100CA00009F0B6CF80914903803208F079C0E09115
:100CB000490381E08E0F809349038091BB00F0E0EF
:100CC000E65BFC4F80833DC0803B39F0E0F4803A26
:100CD00009F485C0883A09F09BCF84E0809397039C
:100CE00010926B0310926A03E0919203F0919303C8
:100CF000099580916A0381110FC081E080936A0396
:100D000010926C0309C0803C09F482C0883C09F44D
:100D10007FC0883B09F07CCFE0916B0381E08E0FB0
:100D200080936B03F0E0E459FC4F80818093BB001B
:100D300090916B0380916A0331C0809196038093F8
:100D4000BB0085EC8093BC0063CF90918D038091B4
:100D50008C039817B8F580918E0390918F03E091E2
:100D60008D0321E02E0F20938D03E80FF92FF11D45
:100D70008081E5CF20918E0330918F03E0918D0328
:100D800081E08E0F80938D038091BB00E20FF32FE3
:100D9000F11D808390918D0380918C03981788F2C8
:100DA00085E8D0CF20918E0330918F03E0918D03A1
:100DB00081E08E0F80938D038091BB00E20FF32FB3
:100DC000F11D808380919503811150CF81E0809344
:100DD000940384EA8093BC001092970319CF0E9479
:100DE000DB0580914903803230F4E0914903F0E063
:100DF000E65BFC4F10826091490370E0E091900344
:100E0000F09191038AE493E009951092490300CF91
:100E100085ECE0CF1092480329CFFC01918D228D03
:100E2000892F90E0805C9F4F821B91098F739927D7
:100E30000895FC01918D828D981731F0828DE80F15
:100E4000F11D858D90E008958FEF9FEF0895FC01CF
:100E5000918D828D981761F0A28DAE0FBF2FB11DBD
:100E60005D968C91928D9F5F9F73928F90E0089515
:100E70008FEF9FEF0895FC01538D448D252F30E0B7
:100E8000842F90E0821B930B541710F0CF96089597
:100E90000197089587E998E0892B49F080E090E078
:100EA000892B29F00E94970881110C940000089565
:100EB000FC01A48DA80FB92FB11DA35ABF4F2C91CF
:100EC000848D90E001968F739927848FA689B789C6
:100ED0002C93A089B1898C91837080648C93938DBD
:100EE000848D981306C00288F389E02D80818F7D60
:100EF00080830895CF93DF93EC01888D8823B9F028
:100F0000AA89BB89E889F9898C9185FD03C0808114
:100F100086FD0DC00FB607FCF7CF8C9185FFF2CF91
:100F2000808185FFEDCFCE010E945807E9CFDF9188
:100F3000CF910895EF92FF920F931F93CF93DF937A
:100F4000EC0181E0888F9B8D8C8D98131AC0E88905
:100F5000F989808185FF15C09FB7F894EE89FF89D4
:100F60006083E889F98980818370806480839FBF72
:100F700081E090E0DF91CF911F910F91FF90EF9072
:100F80000895F62E0B8D10E00F5F1F4F0F73112782
:100F9000E02E8C8D8E110CC00FB607FCFACFE889BD
:100FA000F989808185FFF5CFCE010E945807F1CFE6
:100FB000EB8DEC0FFD2FF11DE35AFF4FF0829FB731
:100FC000F8940B8FEA89FB8980818062CFCFCF9222
:100FD000DF92EF92FF921F93CF93DF93EC016A01B0
:100FE0007B01122FE889F98982E08083C11481EEA8
:100FF000D806E104F104A1F060E079E08DE390E02F
:10100000A70196010E94220B215031094109510983
:101010005695479537952795211580E1380798F023
:10102000E889F989108260E874E88EE190E0A70110
:1010300096010E94220B2150310941095109569510
:10104000479537952795EC85FD853083EE85FF859F
:101050002083188EEC89FD891083EA89FB898081C1
:1010600088698083EA89FB8980818F7D8083DF9115
:10107000CF911F91FF90EF90DF90CF9008951F9236
:101080000F920FB60F9211242F938F939F93EF938C
:10109000FF93E091A803F091A9038081E091AE0352
:1010A000F091AF0382FD1BC090818091B1038F5FEF
:1010B0008F732091B203821741F0E091B103F0E009
:1010C000E856FC4F958F8093B103FF91EF919F916C
:1010D0008F912F910F900FBE0F901F9018958081C8
:1010E000F4CF1F920F920FB60F9211242F933F93BC
:1010F0004F935F936F937F938F939F93AF93BF9320
:10110000EF93FF9388E993E00E945807FF91EF91D6
:10111000BF91AF919F918F917F916F915F914F910F
:101120003F912F910F900FBE0F901F90189588E957
:1011300093E00E940D0721E0892B09F420E0822F23
:101140000895E8E9F3E01382128288EE93E0A0E0CC
:10115000B0E084839583A683B78381EE92E0918388
:10116000808385EC90E09587848784EC90E0978776
:10117000868780EC90E0918B808B81EC90E0938B64
:10118000828B82EC90E0958B848B86EC90E0978B41
:10119000868B118E128E138E148E0895AF92BF928D
:1011A000CF92DF92EF92FF920F931F93CF93DF9333
:1011B0006C017B018B01040F151FEB015E01AE1862
:1011C000BF08C017D10759F06991D601ED91FC9184
:1011D0000190F081E02DC6010995892B79F7C501B1
:1011E000DF91CF911F910F91FF90EF90DF90CF9003
:1011F000BF90AF900895FB0101900020E9F731976F
:10120000AF01461B570BDC01ED91FC910280F3818D
:10121000E02D09946FEE72E00C94FB080F931F937E
:10122000CF93DF938C01D0E0C0E06115710519F018
:101230000E94FB08EC01C8010E940A098C0F9D1F47
:10124000DF91CF911F910F9108958F929F92AF924E
:10125000BF92EF92FF920F931F93CF93DF93CDB77F
:10126000DEB7A1970FB6F894DEBF0FBECDBF7C01ED
:10127000FA01CB0119A2223008F42AE08E010F5D99
:101280001F4F822E912CB12CA12CBF01A5019401DE
:101290000E94220BF901CA016A300CF5605DD80189
:1012A0006E938D01232B242B252B79F790E080E082
:1012B000109721F0BD01C7010E94FB08A1960FB64F
:1012C000F894DEBF0FBECDBFDF91CF911F910F917C
:1012D000FF90EF90BF90AF909F908F900895695CC2
:1012E000DECF2115310541F4DC01ED91FC91019037
:1012F000F081E02D642F09940C9425099A01462F62
:1013000050E070E060E00C94710908950E943D0A7D
:101310000E9485090E949300CAE4D7E00E94B800A9
:101320002097E1F30E944A07F9CF1F920F920FB660
:101330000F9211242F933F938F939F93AF93BF935B
:1013400080913A0490913B04A0913C04B0913D04FB
:101350003091390423E0230F2D3768F126E8230F5D
:101360000296A11DB11D2093390480933A049093F5
:101370003B04A0933C04B0933D04809135049091CC
:101380003604A0913704B09138040196A11DB11D17
:101390008093350490933604A0933704B0933804B7
:1013A000BF91AF919F918F913F912F910F900FBE61
:1013B0000F901F9018950196A11DB11DD4CF3FB776
:1013C000F8948091350490913604A0913704B0913F
:1013D000380426B5A89B05C02F3F19F00196A11D22
:1013E000B11D3FBFBA2FA92F982F8827BC01CD016F
:1013F000620F711D811D911D42E0660F771F881FCE
:10140000991F4A95D1F708958F929F92AF92BF92FC
:10141000CF92DF92EF92FF926B017C010E94DF0975
:101420004B015C01C114D104E104F104E9F00E9414
:10143000210B0E94DF09681979098A099B09683E16
:1014400073408105910570F321E0C21AD108E108CB
:10145000F10888EE880E83E0981EA11CB11CC1140F
:10146000D104E104F10429F7FF90EF90DF90CF90D1
:10147000BF90AF909F908F900895789484B58360CB
:1014800084BD85B5836085BDEEE6F0E08081816036
:101490008083E1E8F0E082E0808380818160808366
:1014A000E0E8F0E0808181608083E1EBF0E0808122
:1014B00084608083E0EBF0E080818160808387E856
:1014C00080937A001092C1000895843081F028F44E
:1014D0008230E9F08330F9F00895883071F0893076
:1014E00091F08530B9F4809180008F7D03C08091A8
:1014F00080008F778093800008958091B0008F776F
:101500008093B00008958091B0008F7DF9CF84B5AD
:101510008F7784BD089584B58F7DFBCFCF93DF9304
:1015200090E0FC01E158FF4F24918A569F4FFC0147
:1015300084918823C9F090E0880F991FFC01EF5334
:10154000FF4FA591B491FC01E954FF4FC591D4918F
:1015500061110DC09FB7F8948C91209582238C93D4
:101560008881282328839FBFDF91CF91089562301F
:1015700051F49FB7F8943C91822F809583238C93EC
:10158000E8812E2BEFCF8FB7F894EC912E2B2C9374
:101590008FBFEACF1F93CF93DF93282F30E0F9015D
:1015A000E859FF4F8491F901E158FF4FD491F901B7
:1015B000EA56FF4FC491CC23A9F0162F81110E9447
:1015C000650AEC2FF0E0EE0FFF1FE954FF4FA591E5
:1015D000B4918FB7F894EC91111108C0D095DE2327
:1015E000DC938FBFDF91CF911F910895DE2BF8CF51
:1015F000CF93DF93282F30E0F901E859FF4F849112
:10160000F901E158FF4FD491F901EA56FF4FC49117
:10161000CC23A1F081110E94650AEC2FF0E0EE0FBF
:10162000FF1FE355FF4FA591B491EC91ED2381E0AD
:1016300090E009F480E0DF91CF91089580E090E0A0
:10164000FACF0895A1E21A2EAA1BBB1BFD010DC003
:10165000AA1FBB1FEE1FFF1FA217B307E407F50762
:1016600020F0A21BB30BE40BF50B661F771F881F3E
:10167000991F1A9469F760957095809590959B01D4
:10168000AC01BD01CF010895EE0FFF1F0590F4914D
:10169000E02D0994FB01DC0102C001900D92415044
:0A16A0005040D8F70895F894FFCFEA
:1016AA0048656C6C6F20576F726C64000201000110
:1016BA00C9C3800120000318000800003D00000093
:1016CA0000000808496E6974206661696C21004946
:1016DA006E6974207375636365737321004661696B
:1016EA006C656420746F2073657420706F776572FF
:1016FA0020746F206D617821007478200007020140
:10170A000001C9C380081300000000000000061190
:10171A0000020052000511000103600511010100D9
:10172A00000811020400000000000D111009000851
:10173A0014000F3100000000091111050001B42B3B
:10174A0000000511120100840811120403FFFF00B2
:10175A00021011120C08000000303000070480004B
:10176A0000001011120C140000000000000000001C
:10177A000000001011120C20000000000000000000
:10178A00000000000D1112092C00000000000000EA
:10179A0000001011200C00020007002EE001C9C34E
:1017AA00800000051120010CD20C112008180180BC
:1017BA000803800070200D11200922030D00A7C61E
:1017CA00005402C20B1120072C0436800330AF806C
:1017DA000511200135E20D1120093811ABAB0002C9
:1017EA00FFFF002B0D11200942A402D68300AD0190
:1017FA0080FF051120014C00051120014E40051102
:10180A002001510A1011210C00FFC4307FF5B5B830
:10181A00DE0517160C1011210C0C030015FF000031
:10182A00FFC4307FF5B51011210C18B8DE05171664
:10183A000C030015FF00000811220400087F003D78
:10184A000B112307002C0E0B040C73031011300C20
:10185A00000000000000000000000000000C114021
:10186A000800380E6666444420FE00000000003D71
:10187A00056C0510053C0513051A052D0500000029
:10188A00009A07CE083B077A070D07270719070DA5
:02189A000A0042
:00000001FF
