:020000040000FA
:100000000C9462000C94D6060C94AF060C948A00F3
:100010000C948A000C948A000C948A000C948A0038
:100020000C948A000C948A000C948A000C948A0028
:100030000C948A000C948A000C948A000C948A0018
:100040000C9465060C948A000C9423070C94FD060E
:100050000C948A000C948A000C948A000C948A00F8
:100060000C9455070C948A00000000002300260021
:10007000290000000000250028002B0000000008D7
:10008000000201000003040700000000000000005F
:1000900000000000240027002A00010204081020AC
:1000A000408001020408102001020408102004040A
:1000B0000404040404040202020202020303030310
:1000C0000303740811241FBECFEFD8E0DEBFCDBFFD
:1000D00013E0A0E0B1E0E8EEF4E102C005900D927B
:1000E000A630B107D9F724E0A6E0B3E001C01D9225
:1000F000A635B207E1F710E0C2E6D0E004C02197D0
:10010000FE010E94630AC136D107C9F70E94B508F3
:100110000C94720A0C940000833081F028F4813032
:1001200099F08230A9F008958730A9F08830C9F09D
:100130008430B1F4809180008F7D03C08091800075
:100140008F7780938000089584B58F7784BD08955C
:1001500084B58F7DFBCF8091B0008F778093B00006
:1001600008958091B0008F7DF9CF1F93CF93DF93D7
:10017000282F30E0F901E458FF4F8491F901E65649
:10018000FF4FD491F901E255FF4FC491CC23A9F060
:10019000162F81110E948C00EC2FF0E0EE0FFF1F54
:1001A000EE58FF4FA591B4918FB7F894EC911111CF
:1001B00008C0D095DE23DC938FBFDF91CF911F91D4
:1001C0000895DE2BF8CFCF93DF9390E0FC01E65645
:1001D000FF4F249182559F4FFC0184918823D1F0D9
:1001E00090E0880F991FFC01E057FF4FA591B49153
:1001F000FC01EE58FF4FC591D49161110EC09FB71D
:10020000F8948C91E22FE0958E238C932881E22341
:10021000E8839FBFDF91CF9108958FB7F894EC9159
:10022000E22BEC938FBFF6CF3FB7F8948091A503F4
:100230009091A603A091A703B091A80326B5A89B0F
:1002400005C02F3F19F00196A11DB11D3FBFBA2F68
:10025000A92F982F8827BC01CD01620F711D811D28
:10026000911D42E0660F771F881F991F4A95D1F7AD
:1002700008958F929F92AF92BF92CF92DF92EF92AA
:10028000FF924B015C010E9414016B017C010E94F2
:1002900014016C197D098E099F09683E7340810520
:1002A0009105A8F321E0821A9108A108B10888EE0F
:1002B000C80E83E0D81EE11CF11C81149104A10436
:1002C000B10429F7FF90EF90DF90CF90BF90AF90EF
:1002D0009F908F900895089508950895AF92BF92CA
:1002E000CF92DF92EF92FF920F931F93CF93DF9302
:1002F0006C017B018B01040F151FEB015E01AE1831
:10030000BF08C017D10759F06991D601ED91FC9152
:100310000190F081E02DC6010995892B79F7C5017F
:10032000DF91CF911F910F91FF90EF90DF90CF90D1
:10033000BF90AF900895FC01538D448D252F30E080
:10034000842F90E0821B930B541710F0CF960895E2
:1003500001970895FC01918D828D981761F0A28D0F
:10036000AE0FBF2FB11D5D968C91928D9F5F9F73D5
:10037000928F90E008958FEF9FEF0895FC01918D8B
:10038000828D981731F0828DE80FF11D858D90E0F8
:1003900008958FEF9FEF0895FC01918D228D892F95
:1003A00090E0805C9F4F821B91098F73992708957D
:1003B0008AEA93E00E94CC0121E0892B09F420E035
:1003C000822F089580E090E0892B29F00E94D801C7
:1003D00081110C9400000895FC01A48DA80FB92F81
:1003E000B11DA35ABF4F2C91848D90E001968F735D
:1003F0009927848FA689B7892C93A089B1898C917C
:10040000837080648C93938D848D981306C00288CA
:10041000F389E02D80818F7D80830895EF92FF9294
:100420000F931F93CF93DF93EC0181E0888F9B8D17
:100430008C8D98131AC0E889F989808185FF15C0D1
:100440009FB7F894EE89FF896083E889F9898081F4
:100450008370806480839FBF81E090E0DF91CF91C3
:100460001F910F91FF90EF900895F62E0B8D10E0E5
:100470000F5F1F4F0F731127E02E8C8D8E110CC054
:100480000FB607FCFACFE889F989808185FFF5CF9F
:10049000CE010E94EC01F1CFEB8DEC0FFD2FF11D91
:1004A000E35AFF4FF0829FB7F8940B8FEA89FB89DC
:1004B00080818062CFCFCF93DF93EC01888D88233A
:1004C000B9F0AA89BB89E889F9898C9185FD03C0B7
:1004D000808186FD0DC00FB607FCF7CF8C9185FF9C
:1004E000F2CF808185FFEDCFCE010E94EC01E9CFF4
:1004F000DF91CF91089520914C03260F3327331FAE
:1005000021323105ECF420917003FC0190E080E091
:10051000243069F082E00895A0914C032191AC0150
:10052000445D5C4FA40FB52FB11D2C930196861727
:1005300098F380914C03680F60934C0380E008951A
:1005400081E008951092700381E08093720310920D
:10055000710361E082E10E94B50061E083E10E94E5
:10056000B500E9EBF0E080818E7F808380818D7F14
:10057000808388E48093B80085E48093BC0008956C
:100580000895E0919D0380919C03E81730F4F0E01A
:10059000EA5FFC4F808190E008958FEF9FEF089510
:1005A00090919D0380919C032FEF3FEF981748F4A3
:1005B000E92FF0E0EA5FFC4F208130E09F5F9093ED
:1005C0009D03C901089580919C0390919D03891B0F
:1005D000990B0895CF93DF93CB01EA01642F0E941A
:1005E0007B02CE01DF91CF910895CF93DF931F92CD
:1005F000CDB7DEB7698361E0CE0101960E947B0230
:1006000081E090E00F90DF91CF91089590E080E03D
:1006100008958EBD00000DB407FEFDCF8EB5089580
:100620000F931F93CF93C82F8B01C15030F0F80167
:1006300081918F010E940903F8CFCF911F910F91F3
:100640000895CF93DF93C5ECD9E02197D9F060E00E
:10065000809155040E94B50084E40E94090380E063
:100660000E94090361E08F3F41F4809155040E948C
:10067000B50081E0DF91CF910895809155040E94EB
:10068000B500E3CF80E0F6CFCF92DF92EF92FF92FA
:100690000F931F93CF93DF9300D000D0CDB7DEB779
:1006A000D82EC92E062F7A010E942103182F8823E5
:1006B000C9F081E18983CA820B83DC8260E080918A
:1006C00055040E94B500BE016F5F7F4F84E00E9419
:1006D0001003B701802F0E94100361E08091550440
:1006E0000E94B500812F0F900F900F900F90DF9117
:1006F000CF911F910F91FF90EF90DF90CF900895D1
:10070000FF920F931F93CF93DF93D82FF62E8A017A
:100710000E942103C82F882389F060E0809155044E
:100720000E94B5008F2D0E940903B8018D2F0E94F1
:10073000100361E0809155040E94B5008C2FDF9179
:10074000CF911F910F91FF900895FC01019000201F
:10075000E9F73197AF01481B590BBC018AEA93E0D6
:100760000C946E018F929F92AF92BF920F931F9342
:10077000CF93DF93CDB7DEB7A1970FB6F894DEBF66
:100780000FBECDBF19A2423008F44AE08E010F5DC2
:100790001F4F842E912CB12CA12CA50194010E94F5
:1007A000410AE62FB901CA01EA30F4F4E05DD8014C
:1007B000EE938D01232B242B252B79F790E080E0FD
:1007C000109719F0CD010E94A503A1960FB6F894D9
:1007D000DEBF0FBECDBFDF91CF911F910F91BF90B4
:1007E000AF909F908F900895E95CE1CFCF93DF9316
:1007F0000E94A503EC0183EB92E00E94A5038C0FFD
:100800009D1FDF91CF910895BC01990F880B990B23
:100810004AE00C94B20390919F0321E092279093B9
:100820009F0380919E03822780939E0386EB92E034
:100830000E94F60380919E0390E00E94040481ECE4
:1008400092E00E94F60380919F0390E00C940404D0
:10085000CF92DF92EF92FF920F931F93CF93DF938C
:10086000CDB7DEB7A3970FB6F894DEBF0FBECDBFEE
:1008700061E0809154040E94E30061E0809154049F
:100880000E94B50060E0809153040E94E3001FB70E
:10089000F8948091A903811127C0E8EBF0E08491DE
:1008A000E4EAF0E09491E82FF0E0EE0FFF1FE0574C
:1008B000FF4FA591B491EC91E92321F461E08AE026
:1008C0000E94B50061E08AE00E94E3008CB580617F
:1008D0008CBD8CB580648CBD61E08DE00E94E3002E
:1008E00061E08BE00E94E3008091A9038F5F809319
:1008F000A9031FBF61E0809155040E94E30061E0FD
:10090000809155040E94B5008CB58F7D8CBD8CB54F
:100910008C7F81608CBD8DB58E7F8DBD8CB5837FC6
:100920008CBD87E0E3E1F1E0DE01119601900D92CC
:100930008A95E1F761E0809154040E94B50064E675
:1009400070E080E090E00E94390160E08091540402
:100950000E94B50064E170E080E090E00E943901FF
:1009600060E0809155040E94B500BE016F5F7F4F2B
:1009700087E00E94100361E0809155040E94B50059
:1009800068EC70E080E090E00E9439010E94210351
:10099000882359F160E0809155040E94B50081E000
:1009A0000E94090361E0809155040E94B5000E94F5
:1009B00021038823D1F060E0809155040E94B500A6
:1009C00084E40E940903CE0101967C011AE01150D3
:1009D00039F080E00E940903F70181937F01F7CF8E
:1009E00061E0809155040E94B5000B811C811027A5
:1009F000012710278CEC92E00E94F603CE010196AD
:100A00007C016E019AE0C90ED11CF70161917F0152
:100A100070E090E080E040E10E94B203EC14FD043D
:100A2000A1F783ED92E00E94F603F12CE12C40E166
:100A3000C701B8010E94B20384EB92E00E94F60362
:100A400040E1C701B8010E94B20384EB92E00E942A
:100A5000F60380E00336144409F0D1C048E050E0CA
:100A6000FA01EF5DFE4FF080FA946A0182E0C80E51
:100A7000D11C4E5D5E4FFA01E0800F2D10E0B601F3
:100A80006F5D7E4FA801CE0101960E94690AAE01FA
:100A90004F5F5F4F6E2D8F2D0E948003A601400F88
:100AA000511F4D36F1E05F07D8F219821A8281E2B8
:100AB0008B8380E28C8387E28D838BE08E83AE0113
:100AC0004F5F5F4F63E186E00E94800382E6898387
:100AD000AE014F5F5F4F61E090E080E00E94440311
:100AE00080E48983AE014F5F5F4F61E083E090E077
:100AF0000E94440388E0898384E18A831B828FE01B
:100B00008C8381E38D831E821F8218861986AE0135
:100B10004F5F5F4F69E080E090E10E9444038DE207
:100B2000898384ED8A8311E01F8F89819A8199A33B
:100B300088A3AE01415E5F4F65E080E091E10E94D5
:100B4000440381E88983AE014F5F5F4F61E080E03D
:100B500092E10E94440382E08983AE014F5F5F4FC0
:100B600061E086E092E10E9444038AE089831A836F
:100B70001B82AE014F5F5F4F63E088E092E10E940D
:100B8000440319821A8394E09B838AEA8C831D8232
:100B900022E32E839F83888719861A861B861C86EC
:100BA000AE014F5F5F4F6CE08DE092E10E94440325
:100BB00019821A821B821C821D821E821F82188645
:100BC000AE014F5F5F4F68E089E192E10E9444030C
:100BD00080911A0190911B01A0911C01B0911D01FF
:100BE0008F8F98A3A9A3BAA38FE788A3AE01415E14
:100BF0005F4F64E080E092E20E94440381E0A396AC
:100C00000FB6F894DEBF0FBECDBFDF91CF911F911D
:100C10000F91FF90EF90DF90CF900895CF93DF93E7
:100C200085ED8093BC008091280390912903A091C9
:100C30002A03B0912B030796A11DB11D23E0B695A1
:100C4000A795979587952A95D1F72091BC0024FD0B
:100C500003C01092700336C04091280350912903BD
:100C600060912A0370912B03452B462B472B69F388
:100C70000097A105B10541F02AE22A95F1F700C0DD
:100C80000197A109B109E1CF8091270391E09093E9
:100C900026038823B9F0C091B800D091BA008091A2
:100CA000BC008A7B8093BC0060E082E10E94B500BA
:100CB00060E083E10E94B5000E94A202D093BA00D6
:100CC000C093B800DF91CF9108951F920F920FB695
:100CD0000F9211242F933F938F939F93AF93BF93C2
:100CE0008091A1039091A203A091A303B091A403CA
:100CF0003091A00323E0230F2D3758F50196A11D55
:100D0000B11D2093A0038093A1039093A203A0930D
:100D1000A303B093A4038091A5039091A603A0918F
:100D2000A703B091A8030196A11DB11D8093A5034F
:100D30009093A603A093A703B093A803BF91AF918C
:100D40009F918F913F912F910F900FBE0F901F9009
:100D5000189526E8230F0296A11DB11DD2CF1F9230
:100D60000F920FB60F9211242F933F934F935F93DF
:100D70006F937F938F939F93AF93BF93EF93FF9363
:100D8000E0910201F09103010995FF91EF91BF916C
:100D9000AF919F918F917F916F915F914F913F9113
:100DA0002F910F900FBE0F901F9018951F920F92CA
:100DB0000FB60F9211242F933F934F935F936F932E
:100DC0007F938F939F93AF93BF93EF93FF93E091A4
:100DD0000001F09101010995FF91EF91BF91AF9151
:100DE0009F918F917F916F915F914F913F912F9143
:100DF0000F900FBE0F901F9018951F920F920FB675
:100E00000F9211242F933F934F935F936F937F9390
:100E10008F939F93AF93BF93EF93FF938AEA93E0EF
:100E20000E94EC01FF91EF91BF91AF919F918F9143
:100E30007F916F915F914F913F912F910F900FBED6
:100E40000F901F9018951F920F920FB60F921124BA
:100E50002F938F939F93EF93FF93E091BA03F091B9
:100E6000BB038081E091C003F091C10382FD1BC0F0
:100E700090818091C3038F5F8F732091C403821789
:100E800041F0E091C303F0E0E655FC4F958F80936D
:100E9000C303FF91EF919F918F912F910F900FBE00
:100EA0000F901F9018958081F4CF1F920F920FB66C
:100EB0000F9211242F933F934F935F936F937F93E0
:100EC0008F939F93AF93BF93EF93FF938091B9005C
:100ED000887F803609F44AC0F0F5883209F4A7C04B
:100EE00018F5803109F49BC0B8F4882309F4F9C0DF
:100EF000883009F494C0FF91EF91BF91AF919F9119
:100F00008F917F916F915F914F913F912F910F90B2
:100F10000FBE0F901F901895883109F488C0803259
:100F200051F780936F0314C0803409F49DC040F4DE
:100F30008033B9F38833F9F680936F0385ECB0C042
:100F4000803509F485C0883509F496C0883499F64F
:100F50000E940E06D0CF883909F48CC038F5883746
:100F600029F050F4883611F0803729F683E0809319
:100F7000700310926E0357C0883809F47BC0803923
:100F800019F0803809F0B7CF80916E03803208F0F5
:100F900071C0E0916E0381E08E0F80936E038091AB
:100FA000BB00F0E0E25BFC4F80833DC0803B39F04A
:100FB000E0F4803A09F479C0883A09F09CCF84E0E3
:100FC0008093700310924D0310924C03E0919803AC
:100FD000F0919903099580914C0381110FC081E034
:100FE00080934C0310922C0309C0803C09F4A6CFD7
:100FF000883C09F4A3CF883B09F07DCFE0914D03F5
:1010000081E08E0F80934D03F0E0E45DFC4F808122
:101010008093BB0090914D0380914C0329C0809137
:1010200095038093BB0085EC8093BC0064CF9091C6
:10103000940380919303981758F5E091940381E00D
:101040008E0F80939403F0E0ED58FC4F8081E9CF40
:10105000E091940381E08E0F809394038091BB0014
:10106000F0E0ED58FC4F80839091940380919303BE
:101070009817C8F285E8D8CFE091940381E08E0FED
:10108000809394038091BB00F0E0ED58FC4F808387
:101090008091720381115CCF81E08093710384EAB7
:1010A0008093BC001092700326CF85EC8093BC0027
:1010B0001092700380916E03803230F4E0916E03E1
:1010C000F0E0E25BFC4F108260916E0370E0E09113
:1010D0009603F09197038EE493E0099510926E03C6
:1010E0000ACF10926F0334CFEAEAF3E01382128240
:1010F00088EE93E0A0E0B0E084839583A683B78375
:1011000023E932E03183208325EC30E035872487E2
:1011100024EC30E03787268720EC30E0318B208BC1
:1011200021EC30E0338B228B22EC30E0358B248BAA
:1011300026EC30E0378B268B118E128E138E148E98
:10114000E7E4F4E01382128284839583A683B78355
:1011500085EA92E091838083E3E5F4E082E0808396
:1011600089E081838AE082830895CF93DF9300D062
:1011700000D01F92CDB7DEB7789484B5826084BD6D
:1011800084B5816084BD85B5826085BD85B581608B
:1011900085BD80916E00816080936E001092810009
:1011A00080918100826080938100809181008160C4
:1011B0008093810080918000816080938000809185
:1011C000B10084608093B1008091B0008160809311
:1011D000B00080917A00846080937A0080917A00D8
:1011E000826080937A0080917A00816080937A0097
:1011F00080917A00806880937A001092C1001092EA
:101200009D0310929C0310929B0310929A030E94DC
:10121000A2028BE691E090939903809398038CE669
:1012200091E0909397038093960388E08093BA00AF
:10123000E091BA03F091BB0382E08083E091B603B2
:10124000F091B7031082E091B803F091B9038FECED
:1012500080831092C203E091BE03F091BF0386E049
:101260008083E091BC03F091BD0380818061808325
:10127000E091BC03F091BD03808188608083E091A0
:10128000BC03F091BD03808180688083E091BC0342
:10129000F091BD0380818F7D808381EE92E00E947A
:1012A000F60361E08DE00E94E30061E08EE00E94C1
:1012B000E30061E084E10E94E30061E08DE00E94D0
:1012C000B5000E942804811104C088EF92E00E94BA
:1012D000F60381E08983AE014F5F5F4F64E30E94B4
:1012E00080038BE094E0909303018093020180914E
:1012F0006900837F846080936900E99A60901E0191
:1013000070901F018090200190E0E92E90E0F92E6E
:1013100023E0B22E3FE0A32E40E3942E61E08DE067
:101320000E94B50060919F038EE00E94B50060911D
:101330009E0384E10E94B5008AEA93E00E94AA011C
:10134000843509F092C0B982AE014F5F5F4F65E10D
:1013500081E00E948003AD82CDB6DEB6AE014B5F68
:101360005F4F61E082E192E10E9444035D80452D80
:1013700050E0CA0101962DB73EB7281B390B0FB6B6
:10138000F8943EBF0FBE2DBF0DB71EB70F5F1F4FA6
:10139000EDB7FEB7518264E071E0C80101960E948A
:1013A000690AA80166E681E0850D0E9480030FB6F8
:1013B000F894DEBE0FBECDBE69827A828B82AE010A
:1013C0004F5F5F4F63E080E091E00E944403198229
:1013D0001A821B82AE014F5F5F4F60E283E00E9482
:1013E000800319829A821B821C82AE014F5F5F4F7D
:1013F00061E384E00E94800305EF11E001501109D0
:1014000031F12091530430E0F901E458FF4F849109
:10141000F901E656FF4FD490F901E255FF4FC49011
:10142000CC20B9F081110E948C00EC2DF0E0EE0F81
:10143000FF1FE859FF4FA591B491EC91DE2249F0CE
:1014400061E070E080E090E00E943901D7CF0E9417
:10145000280483E093E00E94F60381E08983AE01D3
:101460004F5F5F4F64E30E948003E114F10409F4CD
:1014700055CF0E94D801882309F450CF0E94000064
:101480004DCFA1E21A2EAA1BBB1BFD010DC0AA1F46
:10149000BB1FEE1FFF1FA217B307E407F50720F0DD
:1014A000A21BB30BE40BF50B661F771F881F991F58
:1014B0001A9469F760957095809590959B01AC01A1
:1014C000BD01CF010895EE0FFF1F0590F491E02DAF
:1014D0000994FB01DC0102C001900D924150504083
:1014E000D8F70895F894FFCF6D016D017377777881
:1014F0004142434445464748496D0002010001C945
:10150000C3800800003D0120000702010001C9C39B
:1015100080081300000000000000061100020052C5
:10152000000511000103600511010100000811020E
:101530000400000000000D111009000814000F3114
:1015400000000000091111050001B42B0000051175
:10155000120100840811120403FFFF00021011128F
:101560000C0800000030300007048000000010115B
:10157000120C140000000000000000000000001029
:1015800011120C200000000000000000000000000C
:101590000D1112092C0000000000000000001011C5
:1015A000200C00020007002EE001C9C380000005E6
:1015B0001120010CD20C11200818018008038000B2
:1015C00070200D11200922030D00A7C6005402C28D
:1015D0000B1120072C0436800330AF800511200149
:1015E00035E20D1120093811ABAB0002FFFF002BD3
:1015F0000D11200942A402D68300AD0180FF051120
:1016000020014C00051120014E4005112001510A16
:101610001011210C00FFC4307FF5B5B8DE05171698
:101620000C1011210C0C030015FF0000FFC4307FCB
:10163000F5B51011210C18B8DE0517160C030015AE
:10164000FF00000811220400087F003D0B11230752
:10165000002C0E0B040C73031011300C0000000062
:101660000000000000000000000C11400800380ECF
:101670006666444420FE00000000000E026E019BDE
:10168000015B02CC01AA01BE0100000000F502EAE4
:10169000020603C002E302D002C1020D0A000A20C2
:1016A0007278206C65643A20000A207478206C659A
:1016B000643A20000A6275663A20000A207061725E
:1016C0007420696E666F3A20005374617274696E9B
:1016D0006720636F6E6E656374696F6E2E2E2E00C9
:0E16E000496E6974206661696C21007478009F
:107E0000112484B714BE81FFF0D085E080938100F7
:107E100082E08093C00088E18093C10086E0809377
:107E2000C20080E18093C4008EE0C9D0259A86E02C
:107E300020E33CEF91E0309385002093840096BBD3
:107E4000B09BFECF1D9AA8958150A9F7CC24DD24C4
:107E500088248394B5E0AB2EA1E19A2EF3E0BF2EE7
:107E6000A2D0813461F49FD0082FAFD0023811F036
:107E7000013811F484E001C083E08DD089C08234E0
:107E800011F484E103C0853419F485E0A6D080C0E4
:107E9000853579F488D0E82EFF2485D0082F10E0AE
:107EA000102F00270E291F29000F111F8ED06801E7
:107EB0006FC0863521F484E090D080E0DECF843638
:107EC00009F040C070D06FD0082F6DD080E0C81688
:107ED00080E7D80618F4F601B7BEE895C0E0D1E017
:107EE00062D089930C17E1F7F0E0CF16F0E7DF06D8
:107EF00018F0F601B7BEE89568D007B600FCFDCFD4
:107F0000A601A0E0B1E02C9130E011968C91119780
:107F100090E0982F8827822B932B1296FA010C0160
:107F200087BEE89511244E5F5F4FF1E0A038BF0790
:107F300051F7F601A7BEE89507B600FCFDCF97BE46
:107F4000E89526C08437B1F42ED02DD0F82E2BD052
:107F50003CD0F601EF2C8F010F5F1F4F84911BD097
:107F6000EA94F801C1F70894C11CD11CFA94CF0C13
:107F7000D11C0EC0853739F428D08EE10CD085E9AC
:107F80000AD08FE07ACF813511F488E018D01DD067
:107F900080E101D065CF982F8091C00085FFFCCF94
:107FA0009093C60008958091C00087FFFCCF809118
:107FB000C00084FD01C0A8958091C6000895E0E648
:107FC000F0E098E1908380830895EDDF803219F02E
:107FD00088E0F5DFFFCF84E1DECF1F93182FE3DFCA
:107FE0001150E9F7F2DF1F91089580E0E8DFEE27F6
:047FF000FF270994CA
:027FFE00040479
:00000001FF
