:100000000C9469000C9491000C9491000C94910054
:100010000C9491000C9491000C9491000C9491001C
:100020000C9491000C9491000C9491000C9491000C
:100030000C9491000C9491000C9491000C949100FC
:100040000C9487090C9491000C9431080C9463086B
:100050000C9491000C9491000C9491000C949100DC
:100060000C94D3050C9491000000000900030200D9
:10007000000405080000000000000000000000016E
:10008000020408102040800102040810200102042C
:100090000810204080400404040404040404020204
:1000A000020202020303030303030202030000002F
:1000B0000023002600290000000000250028002B56
:1000C0000000000000240027002A0000D0008B055B
:1000D000930811241FBECFEFD8E0DEBFCDBF12E0E2
:1000E000A0E0B1E0EEE8F6E102C005900D92AA3D75
:1000F000B107D9F724E0AAEDB2E001C01D92A63203
:10010000B207E1F710E0C9E6D0E004C02197FE0194
:100110000E94360BC636D107C9F70E9478090C94A5
:10012000450B0C94000026E040E855E260E070E0EA
:1001300080E893E00E94D9078BED92E00E94CC0307
:1001400067E271E0882311F062E371E080E893E0F8
:100150000C9400094FE060E071E08BED92E00E94AA
:100160009A0460E471E080E893E00E9400094AE0AC
:1001700050E06091DA0280E893E00E94700967ED38
:1001800072E080E893E00E9400098091DA028F5FBC
:100190008093DA026AE070E080E090E00C94F60967
:1001A0002AE049E062E08BED92E00C94DE008EBD27
:1001B00000000DB407FEFDCF8EB50895FC016083ED
:1001C000418322830895CF93DF93EC010E94CC04F6
:1001D00061E08A810E94800A61E08A810E94BC0AF3
:1001E0008CB58F7D8CBD8CB58C7F81608CBD8DB5C1
:1001F0008E7F8DBD8CB5837F8CBDDF91CF910895AF
:10020000CF93DF93EC0161E089810E94800A61E075
:1002100089810E94BC0A60E08881DF91CF910C94B3
:10022000800AFC0180810E94EA0A21E0892B09F002
:1002300020E0822F08950F931F93CF93DF93EC015B
:1002400005EC19E001501109D1F060E08A810E94AB
:10025000BC0A84E40E94D70080E00E94D70061E0DD
:100260008F3F49F48A810E94BC0A81E0DF91CF91DF
:100270001F910F9108958A810E94BC0AE3CF80E00C
:10028000F5CF0F931F93CF93C62F8A01C15030F043
:10029000F80181918F010E94D700F8CFCF911F9173
:1002A0000F9108950F931F93CF93DF9300D000D049
:1002B00000D01F92CDB7DEB78C0187E0EFE0F1E010
:1002C000DE01119601900D928A95E1F761E0F80147
:1002D00081810E94BC0A64E670E080E090E00E94A8
:1002E000F60960E0F80181810E94BC0A64E170E0D7
:1002F00080E090E00E94F60960E0F80182810E94AF
:10030000BC0AAE014F5F5F4F67E0C8010E94410128
:1003100061E0F80182810E94BC0A68EC70E080E034
:1003200090E00E94F60927960FB6F894DEBF0FBE44
:10033000CDBFDF91CF911F910F910895AF92BF92E2
:10034000CF92DF92EF92FF920F931F93CF93DF93A1
:1003500000D000D0CDB7DEB78C01B62EA72EE42E8C
:1003600069010E941B01F82E8823D9F081E189835D
:10037000AA82EB82BC8260E0F80182810E94BC0A02
:10038000AE014F5F5F4F64E0C8010E944101A601CA
:100390006E2DC8010E94410161E0F80182810E9436
:1003A000BC0A8F2D0F900F900F900F90DF91CF917F
:1003B0001F910F91FF90EF90DF90CF90BF90AF9083
:1003C0000895CF93DF9300D01F92CDB7DEB7209171
:1003D0001601309117014091180129833A834B830C
:1003E0009E012F5F3F4F43E060E071E00E949E015D
:1003F0000F900F900F90DF91CF9108950F931F935F
:10040000CF93DF9300D000D01F92CDB7DEB72FEF90
:10041000240F2330D0F48C01298350E0CE010296C2
:100420000E943C0B9E012F5F3F4F45E060E071E171
:10043000C8010E949E010F900F900F900F900F9097
:10044000DF91CF911F910F91089580E0F4CF0F932A
:100450001F93CF93DF9300D000D0CDB7DEB767FDF9
:100460001EC000911C0110911D0120911E013091B0
:100470001F0109831A832B833C836A839E012F5FAC
:100480003F4F44E060E072E20E949E010F900F90A7
:100490000F900F90DF91CF911F910F91089580E001
:1004A000F5CFDF92EF92FF920F931F93CF93DF93DD
:1004B000EC01062FD42E79010E941B01182F8823EE
:1004C00081F060E08A810E94BC0A8D2D0E94D700D5
:1004D000A701602FCE010E94410161E08A810E9444
:1004E000BC0A812FDF91CF911F910F91FF90EF9068
:1004F000DF9008956F927F928F929F92AF92BF92FA
:10050000CF92DF92EF92FF920F931F93CF93DF93DF
:10051000CDB7DEB76E970FB6F894DEBF0FBECDBF76
:100520005C017B016A0181E0C81AD108FB0180816E
:10053000082F10E00F5F1F4F0C151D05E8F4F701A1
:10054000E00FF11F90809A940E5F1F4F8180692CFD
:10055000712CB701600F711FA301CE0101960E949B
:100560003C0B9E012F5F3F4F482D692DC5010E9416
:100570005102060D171DE0CF6E960FB6F894DEBF40
:100580000FBECDBFDF91CF911F910F91FF90EF90E4
:10059000DF90CF90BF90AF909F908F907F906F90A3
:1005A0000895CF93DF9300D000D0CDB7DEB7198286
:1005B00020E32A831B821C829E012F5F3F4F41E371
:1005C00064E00E9451020F900F900F900F90DF9106
:1005D000CF910895CF93DF9300D01F92CDB7DEB7B0
:1005E00019821A821B829E012F5F3F4F40E263E017
:1005F0000E9451020F900F900F90DF91CF910895BC
:10060000CF93DF931F92CDB7DEB723E029839E01FE
:100610002F5F3F4F45E161E00E9451020F90DF9153
:10062000CF9108958F929F92AF92BF92CF92DF9217
:10063000EF92FF921F93CF93DF931F92CDB7DEB758
:100640007C014B014983ADB6BEB69E012F5F3F4F83
:1006500041E062E172E10E949E011981412F50E068
:10066000CA0101962DB73EB7281B390B0FB6F89477
:100670003EBF0FBE2DBF8DB79EB701966C01EDB783
:10068000FEB71183B40101960E943C0B61E0610F3B
:10069000960146E6C7010E9451020FB6F894BEBE0D
:1006A0000FBEADBE0F90DF91CF911F91FF90EF90E5
:1006B000DF90CF90BF90AF909F908F9008950F9351
:1006C0001F93CF93C62F8A01C15038F080E00E945B
:1006D000D700F80181938F01F7CFCF911F910F9130
:1006E0000895DF92EF92FF920F931F93CF93DF93C2
:1006F000EC01062FD42E79010E941B01882349F1B9
:1007000060E08A810E94BC0A8D2D0E94D70061E0C2
:100710008A810E94BC0ACE010E941B018823C9F075
:1007200060E08A810E94BC0A84E40E94D700A7018D
:10073000602FCE010E945F0361E08A810E94BC0AA3
:10074000812FDF91CF911F910F91FF90EF90DF905C
:10075000089510E0F5CFCF93DF93CDB7DEB729979B
:100760000FB6F894DEBF0FBECDBF9E012F5F3F4F87
:1007700041E069E00E9471032B813C8181E02434D7
:10078000334609F080E029960FB6F894DEBF0FBE1D
:10079000CDBFDF91CF910895EF92FF920F931F93FA
:1007A000CF93DF93CDB7DEB764970FB6F894DEBF73
:1007B0000FBECDBF8C010E940001C8010E94E30062
:1007C000C8010E945201C8010E94AB03F82E882381
:1007D00009F4A2C04EE651E064E471E0C8010E9451
:1007E0007A0219821A8281E28B8380E28C8387E20B
:1007F0008D838BE08E839E012F5F3F4F43E166E048
:10080000C8010E94510282E689839E012F5F3F4FFB
:1008100041E070E060E0C8010E949E0180E48983AD
:100820009E012F5F3F4F41E063E070E0C8010E94EE
:100830009E0188E0898384E18A831B828FE08C8318
:1008400081E38D831E821F82188619869E012F5F89
:100850003F4F49E060E070E1C8010E949E018DE2D7
:10086000898384ED8A8342E0BE016F5F7F4FC801B8
:100870000E94FE0181E889839E012F5F3F4F41E086
:1008800060E072E1C8010E949E0182E089839E01BE
:100890002F5F3F4F41E066E072E1C8010E949E0178
:1008A0008AE08983EE24E394EA821B829E012F5F13
:1008B0003F4F43E068E072E1C8010E949E01198247
:1008C000EA8294E09B838AEA8C831D8222E32E8352
:1008D0009F83888719861A861B861C869E012F5F38
:1008E0003F4F4CE06DE072E1C8010E949E01198209
:1008F0001A821B821C821D821E821F8218869E0104
:100900002F5F3F4F48E069E172E1C8010E949E01FC
:100910006FE7C8010E9427028F2D64960FB6F894E6
:10092000DEBF0FBECDBFDF91CF911F910F91FF9022
:10093000EF900895FF920F931F93CF93DF93EC01F5
:100940008B01F42E0E9400034F2DB801CE010E94AE
:100950001203CE010E94E101CE010E94EA02CE0103
:100960000E94D10205EF11E001501109CE0159F0AA
:100970000E94110181110AC061E070E080E090E006
:100980000E94F609F1CF0E94CC0380E0DF91CF9165
:100990001F910F91FF900895CF93CFB7F894809156
:1009A000DE02811127C0E0EAF0E08491E9E8F0E09E
:1009B0009491E82FF0E0EE0FFF1FEF53FF4FA5914A
:1009C000B491EC91E92321F461E08AE00E94BC0A31
:1009D00061E08AE00E94800A8CB580618CBD8CB594
:1009E00080648CBD61E08DE00E94800A61E08BE054
:1009F0000E94800A8091DE028F5F8093DE02CFBF6B
:100A0000CF91089590E080E0089580910E03909139
:100A10000F03891B990B089590910F0380910E038A
:100A20002FEF3FEF981748F4E92FF0E0E05FFC4F1D
:100A3000208130E09F5F90930F03C9010895E091FA
:100A40000F0380910E03E81730F4F0E0E05FFC4FF5
:100A5000808190E008958FEF9FEF08950895CF93E0
:100A6000DF931F92CDB7DEB769832091EB0222237B
:100A7000F9F02091EC02203258F021E030E0FC0146
:100A80003383228390E080E00F90DF91CF9108952F
:100A90008091ED02E82FF0E0E251FD4F99819083C3
:100AA0008F5F8093ED028093EC0281E090E0ECCFC9
:100AB00061E0CE0101960E949C05F7CFCF92DF92B4
:100AC000EF92FF920F931F93CF93DF937C01CB01A3
:100AD0008A012091EB02222389F0EB016B01C40E05
:100AE000D51ECC15DD0569F06991D701ED91FC911A
:100AF0000190F081E02DC7010995F3CF642F0E948A
:100B00009C05C801DF91CF911F910F91FF90EF904D
:100B1000DF90CF900895EFEDF2E01382128288EE1D
:100B200093E0A0E0B0E084839583A683B78386EB4F
:100B300092E091838083089520915203260F3327FA
:100B4000331F21323105ECF420917F03FC0190E04A
:100B500080E0243069F082E00895A0915203219151
:100B6000AC014C5A5C4FA40FB52FB11D2C930196CC
:100B7000861798F380915203680F6093520380E0C8
:100B8000089581E0089585ED8093BC008091BC00BC
:100B900084FDFCCF10927F03089585EC8093BC0008
:100BA00010927F0308951F920F920FB60F92112497
:100BB0002F933F934F935F936F937F938F939F9365
:100BC000AF93BF93EF93FF938091B900887F8036F6
:100BD00009F44CC008F03FC0883209F4A8C018F5E9
:100BE000803109F49CC0B8F4882309F405C1883029
:100BF00009F495C0FF91EF91BF91AF919F918F91B3
:100C00007F916F915F914F913F912F910F900FBE08
:100C10000F901F901895883109F489C0803251F7E0
:100C20008093300315C0803409F4A6C048F48033A3
:100C3000B9F38833F9F6809330030E94CD05DACFFB
:100C4000803509F489C0883509F49EC0883491F64E
:100C50000E94C305CFCF883909F494C038F588378E
:100C600029F050F4883611F0803721F683E0809324
:100C70007F031092310357C0883809F483C080394C
:100C800019F0803809F0B6CF80913103803208F036
:100C900079C0E091310381E08E0F80933103809120
:100CA000BB00F0E0EE5CFC4F80833DC0803B39F040
:100CB000E0F4803A09F485C0883A09F09BCF84E0DB
:100CC00080937F031092530310925203E0917A03B2
:100CD000F0917B0309958091520381110FC081E04F
:100CE000809352031092540309C0803C09F482C0DF
:100CF000883C09F47FC0883B09F07CCFE091530326
:100D000081E08E0F80935303F0E0EC5AFC4F80811A
:100D10008093BB00909153038091520331C0809126
:100D20007E038093BB0085EC8093BC0063CF9091E1
:100D30007503809174039817B8F5809176039091AC
:100D40007703E091750321E02E0F20937503E80FE0
:100D5000F92FF11D8081E5CF209176033091770343
:100D6000E091750381E08E0F809375038091BB0045
:100D7000E20FF32FF11D808390917503809174032E
:100D8000981788F285E8D0CF2091760330917703C9
:100D9000E091750381E08E0F809375038091BB0015
:100DA000E20FF32FF11D808380917D03811150CFDD
:100DB00081E080937C0384EA8093BC0010927F03DF
:100DC00019CF0E94CD0580913103803230F4E0913B
:100DD0003103F0E0EE5CFC4F10826091310370E073
:100DE000E0917803F091790382E393E00995109202
:100DF000310300CF85ECE0CF1092300329CFFC0106
:100E0000918D228D892F90E0805C9F4F821B9109EC
:100E10008F7399270895FC01918D828D981731F079
:100E2000828DE80FF11D858D90E008958FEF9FEF83
:100E30000895FC01918D828D981761F0A28DAE0FFF
:100E4000BF2FB11D5D968C91928D9F5F9F73928F86
:100E500090E008958FEF9FEF0895FC01538D448D2E
:100E6000252F30E0842F90E0821B930B541710F055
:100E7000CF9608950197089589E898E0892B49F065
:100E800080E090E0892B29F00E94890881110C9460
:100E900000000895FC01A48DA80FB92FB11DA35A1D
:100EA000BF4F2C91848D90E001968F739927848F8A
:100EB000A689B7892C93A089B1898C9183708064AD
:100EC0008C93938D848D981306C00288F389E02D4E
:100ED00080818F7D80830895CF93DF93EC01888D8F
:100EE0008823B9F0AA89BB89E889F9898C9185FDA5
:100EF00003C0808186FD0DC00FB607FCF7CF8C9133
:100F000085FFF2CF808185FFEDCFCE010E944A0799
:100F1000E9CFDF91CF910895EF92FF920F931F9346
:100F2000CF93DF93EC0181E0888F9B8D8C8D98139C
:100F30001AC0E889F989808185FF15C09FB7F894A8
:100F4000EE89FF896083E889F989808183708064F4
:100F500080839FBF81E090E0DF91CF911F910F913F
:100F6000FF90EF900895F62E0B8D10E00F5F1F4F4E
:100F70000F731127E02E8C8D8E110CC00FB607FC5D
:100F8000FACFE889F989808185FFF5CFCE010E94EB
:100F90004A07F1CFEB8DEC0FFD2FF11DE35AFF4F08
:100FA000F0829FB7F8940B8FEA89FB898081806279
:100FB000CFCFCF92DF92EF92FF921F93CF93DF9329
:100FC000EC016A017B01122FE889F98982E08083B4
:100FD000C11481EED806E104F104A1F060E079E0EB
:100FE0008DE390E0A70196010E94140B2150310976
:100FF000410951095695479537952795211580E167
:10100000380798F0E889F989108260E874E88EE181
:1010100090E0A70196010E94140B2150310941096B
:1010200051095695479537952795EC85FD85308371
:10103000EE85FF852083188EEC89FD891083EA896F
:10104000FB89808188698083EA89FB8980818F7D23
:101050008083DF91CF911F91FF90EF90DF90CF9031
:1010600008951F920F920FB60F9211242F938F9312
:101070009F93EF93FF93E0919003F0919103808110
:10108000E0919603F091970382FD1BC090818091BF
:1010900099038F5F8F7320919A03821741F0E0913B
:1010A0009903F0E0E058FC4F958F80939903FF91EE
:1010B000EF919F918F912F910F900FBE0F901F90E6
:1010C00018958081F4CF1F920F920FB60F921124C2
:1010D0002F933F934F935F936F937F938F939F9340
:1010E000AF93BF93EF93FF9380E893E00E944A078A
:1010F000FF91EF91BF91AF919F918F917F916F91F0
:101100005F914F913F912F910F900FBE0F901F90C5
:10111000189580E893E00E94FF0621E0892B09F4EE
:1011200020E0822F0895E0E8F3E01382128288EE37
:1011300093E0A0E0B0E084839583A683B78388EC36
:1011400092E09183808385EC90E09587848784EC9E
:1011500090E09787868780EC90E0918B808B81EC84
:1011600090E0938B828B82EC90E0958B848B86EC65
:1011700090E0978B868B118E128E138E148E0895AD
:10118000AF92BF92CF92DF92EF92FF920F931F9395
:10119000CF93DF936C017B018B01040F151FEB01D3
:1011A0005E01AE18BF08C017D10759F06991D6018A
:1011B000ED91FC910190F081E02DC6010995892BFC
:1011C00079F7C501DF91CF911F910F91FF90EF90BB
:1011D000DF90CF90BF90AF900895FB010190002069
:1011E000E9F73197AF01461B570BDC01ED91FC91FC
:1011F0000280F381E02D099466ED72E00C94ED0815
:101200000F931F93CF93DF938C01D0E0C0E0611563
:10121000710519F00E94ED08EC01C8010E94FC085C
:101220008C0F9D1FDF91CF911F910F9108958F9289
:101230009F92AF92BF92EF92FF920F931F93CF9323
:10124000DF93CDB7DEB7A1970FB6F894DEBF0FBE20
:10125000CDBF7C01FA01CB0119A2223008F42AE0AB
:101260008E010F5D1F4F822E912CB12CA12CBF013E
:10127000A50194010E94140BF901CA016A300CF512
:10128000605DD8016E938D01232B242B252B79F7DC
:1012900090E080E0109721F0BD01C7010E94ED08A9
:1012A000A1960FB6F894DEBF0FBECDBFDF91CF91F0
:1012B0001F910F91FF90EF90BF90AF909F908F90F4
:1012C0000895695CDECF2115310541F4DC01ED9113
:1012D000FC910190F081E02D642F09940C94170982
:1012E0009A01462F50E070E060E00C946309089585
:1012F0000E942F0A0E9477090E949300CCE3D7E056
:101300000E94AA002097E1F30E943C07F9CF1F92A8
:101310000F920FB60F9211242F933F938F939F93A9
:10132000AF93BF938091220490912304A091240451
:10133000B09125043091210423E0230F2D3768F16B
:1013400026E8230F0296A11DB11D2093210480934E
:10135000220490932304A0932404B0932504809145
:101360001D0490911E04A0911F04B09120040196C9
:10137000A11DB11D80931D0490931E04A0931F0412
:10138000B0932004BF91AF919F918F913F912F9186
:101390000F900FBE0F901F9018950196A11DB11DC3
:1013A000D4CF3FB7F89480911D0490911E04A09172
:1013B0001F04B091200426B5A89B05C02F3F19F04B
:1013C0000196A11DB11D3FBFBA2FA92F982F8827C5
:1013D000BC01CD01620F711D811D911D42E0660FA0
:1013E000771F881F991F4A95D1F708958F929F9272
:1013F000AF92BF92CF92DF92EF92FF926B017C018E
:101400000E94D1094B015C01C114D104E104F10433
:10141000E9F00E94130B0E94D109681979098A0921
:101420009B09683E73408105910570F321E0C21A63
:10143000D108E108F10888EE880E83E0981EA11C0F
:10144000B11CC114D104E104F10429F7FF90EF901D
:10145000DF90CF90BF90AF909F908F900895789439
:1014600084B5836084BD85B5836085BDEEE6F0E01C
:10147000808181608083E1E8F0E082E08083808188
:1014800081608083E0E8F0E0808181608083E1EB2F
:10149000F0E0808184608083E0EBF0E08081816017
:1014A000808387E880937A001092C1000895843089
:1014B00081F028F48230E9F08330F9F00895883023
:1014C00071F0893091F08530B9F4809180008F7D82
:1014D00003C0809180008F77809380000895809171
:1014E000B0008F778093B00008958091B0008F7D19
:1014F000F9CF84B58F7784BD089584B58F7DFBCFF8
:10150000CF93DF9390E0FC01E158FF4F24918A567E
:101510009F4FFC0184918823C9F090E0880F991FA8
:10152000FC01EF53FF4FA591B491FC01E954FF4F2B
:10153000C591D49161110DC09FB7F8948C912095FD
:1015400082238C938881282328839FBFDF91CF91AA
:101550000895623051F49FB7F8943C91822F8095A2
:1015600083238C93E8812E2BEFCF8FB7F894EC91E7
:101570002E2B2C938FBFEACF1F93CF93DF93282F6F
:1015800030E0F901E859FF4F8491F901E158FF4F2C
:10159000D491F901EA56FF4FC491CC23A9F0162F3C
:1015A00081110E94570AEC2FF0E0EE0FFF1FE95463
:1015B000FF4FA591B4918FB7F894EC91111108C029
:1015C000D095DE23DC938FBFDF91CF911F910895DB
:1015D000DE2BF8CFCF93DF93282F30E0F901E859C5
:1015E000FF4F8491F901E158FF4FD491F901EA5678
:1015F000FF4FC491CC23A1F081110E94570AEC2F18
:10160000F0E0EE0FFF1FE355FF4FA591B491EC9171
:10161000ED2381E090E009F480E0DF91CF9108951F
:1016200080E090E0FACF0895A1E21A2EAA1BBB1B1E
:10163000FD010DC0AA1FBB1FEE1FFF1FA217B3079E
:10164000E407F50720F0A21BB30BE40BF50B661FB4
:10165000771F881F991F1A9469F760957095809578
:1016600090959B01AC01BD01CF010895EE0FFF1FC6
:101670000590F491E02D0994FB01DC0102C001907A
:0E1680000D9241505040D8F70895F894FFCFD6
:10168E00737777784142434445464748496D000297
:10169E00010001C9C3800120000318000800003DAD
:1016AE0000000000000808496E6974206661696CCC
:1016BE002100496E6974207375636365737321002D
:1016CE00747820000702010001C9C38008130000CE
:1016DE00000000000006110002005200051100017A
:1016EE000360051101010000081102040000000052
:1016FE00000D111009000814000F31000000000940
:10170E001111050001B42B0000051112010084080F
:10171E0011120403FFFF00021011120C080000004A
:10172E003030000704800000001011120C1400006D
:10173E00000000000000000000001011120C20003C
:10174E0000000000000000000000000D1112092C26
:10175E000000000000000000001011200C0002002C
:10176E0007002EE001C9C3800000051120010CD234
:10177E000C1120081801800803800070200D112024
:10178E000922030D00A7C6005402C20B1120072C1C
:10179E000436800330AF800511200135E20D112093
:1017AE00093811ABAB0002FFFF002B0D11200942CF
:1017BE00A402D68300AD0180FF051120014C000567
:1017CE001120014E4005112001510A1011210C006B
:1017DE00FFC4307FF5B5B8DE0517160C1011210CBD
:1017EE000C030015FF0000FFC4307FF5B51011216A
:1017FE000C18B8DE0517160C030015FF00000811B3
:10180E00220400087F003D0B112307002C0E0B0451
:10181E000C73031011300C000000000000000000DB
:10182E00000000000C11400800380E66664444208B
:10183E00FE00000000002F055E0502052E050505C1
:10184E000C051F05000000008C07C0082D076C0753
:0A185E00FF0619070B070D0A000032
:00000001FF
