:020000040000FA
:100000000C9462000C948A000C948A000C948A0070
:100010000C948A000C948A000C948A000C948A0038
:100020000C948A000C948A000C948A000C948A0028
:100030000C948A000C948A000C948A000C948A0018
:100040000C943C050C948A000C94AC050C94860529
:100050000C948A000C948A000C948A000C948A00F8
:100060000C948A000C948A000000000025002800EF
:100070002B000000000023002600290000000008DB
:10008000000201000003040700000000000000005F
:1000900000000000240027002A00010204081020AC
:1000A000408001020408102001020408102004040A
:1000B0000404040404040202020202020303030310
:1000C0000303DE0511241FBECFEFD8E0DEBFCDBF96
:1000D00012E0A0E0B1E0E0E7FFE002C005900D9281
:1000E000A83CB107D9F723E0A8ECB2E001C01D920B
:1000F000A738B207E1F710E0C2E6D0E004C02197CC
:10010000FE010E94A707C136D107C9F70E94130656
:100110000C94B6070C940000833081F028F48130F1
:1001200099F08230A9F008958730A9F08830C9F09D
:100130008430B1F4809180008F7D03C08091800075
:100140008F7780938000089584B58F7784BD08955C
:1001500084B58F7DFBCF8091B0008F778093B00006
:1001600008958091B0008F7DF9CFCF93DF93282F32
:1001700030E0F901E458FF4F8491F901E656FF4F52
:10018000D491F901E255FF4FC491CC23A1F0811124
:100190000E948C00EC2FF0E0EE0FFF1FEE58FF4F97
:1001A000A591B491EC91ED2381E090E009F480E019
:1001B000DF91CF91089580E090E0FACF1F93CF9325
:1001C000DF93282F30E0F901E458FF4F8491F901C3
:1001D000E656FF4FD491F901E255FF4FC491CC236D
:1001E000A9F0162F81110E948C00EC2FF0E0EE0F89
:1001F000FF1FE859FF4FA591B4918FB7F894EC9188
:10020000111108C0D095DE23DC938FBFDF91CF9111
:100210001F910895DE2BF8CFCF93DF9390E0FC0180
:10022000E656FF4F249182559F4FFC01849188230D
:10023000D1F090E0880F991FFC01E057FF4FA59186
:10024000B491FC01E859FF4FC591D49161110EC0E2
:100250009FB7F8948C91E22FE0958E238C932881A0
:10026000E223E8839FBFDF91CF9108958FB7F89481
:10027000EC91E22BEC938FBFF6CF3FB7F8948091CF
:10028000E2029091E302A091E402B091E50226B56A
:10029000A89B05C02F3F19F00196A11DB11D3FBFBE
:1002A000BA2FA92F982F8827BC01CD01620F711D8D
:1002B000811D911D42E0660F771F881F991F4A9587
:1002C000D1F708958F929F92AF92BF92CF92DF9213
:1002D000EF92FF924B015C010E943D016B017C019A
:1002E0000E943D016C197D098E099F09683E73408B
:1002F00081059105A8F321E0821A9108A108B108AF
:1003000088EEC80E83E0D81EE11CF11C8114910414
:10031000A104B10429F7FF90EF90DF90CF90BF9038
:10032000AF909F908F900895AF92BF92CF92DF923F
:10033000EF92FF920F931F93CF93DF936C017B019A
:100340008B01040F151FEB015E01AE18BF08C0172B
:10035000D10759F06991D601ED91FC910190F0819E
:10036000E02DC6010995892B79F7C501DF91CF9161
:100370001F910F91FF90EF90DF90CF90BF90AF90C3
:100380000895FC01538D448D252F30E0842F90E09B
:10039000821B930B541710F0CF9608950197089580
:1003A000FC01918D828D981761F0A28DAE0FBF2F49
:1003B000B11D5D968C91928D9F5F9F73928F90E09F
:1003C00008958FEF9FEF0895FC01918D828D98170E
:1003D00031F0828DE80FF11D858D90E008958FEF4B
:1003E0009FEF0895FC01918D228D892F90E0805C14
:1003F0009F4F821B91098F739927089587EE92E092
:100400000E94F20121E0892B09F420E0822F089557
:1004100080E090E0892B29F00E94FE0181110C946C
:1004200000000895FC01A48DA80FB92FB11DA35A97
:10043000BF4F2C91848D90E001968F739927848F04
:10044000A689B7892C93A089B1898C918370806427
:100450008C93938D848D981306C00288F389E02DC8
:1004600080818F7D80830895EF92FF920F931F9379
:10047000CF93DF93EC0181E0888F9B8D8C8D981357
:100480001AC0E889F989808185FF15C09FB7F89463
:10049000EE89FF896083E889F989808183708064AF
:1004A00080839FBF81E090E0DF91CF911F910F91FA
:1004B000FF90EF900895F62E0B8D10E00F5F1F4F09
:1004C0000F731127E02E8C8D8E110CC00FB607FC18
:1004D000FACFE889F989808185FFF5CFCE010E94A6
:1004E0001202F1CFEB8DEC0FFD2FF11DE35AFF4F00
:1004F000F0829FB7F8940B8FEA89FB898081806234
:10050000CFCFCF93DF93EC01888D8823B9F0AA89F0
:10051000BB89E889F9898C9185FD03C0808186FDBE
:100520000DC00FB607FCF7CF8C9185FFF2CF80810D
:1005300085FFEDCFCE010E941202E9CFDF91CF916E
:1005400008958EBD00000DB407FEFDCF8EB5089551
:10055000CF93DF93C5ECD9E02197D9F060E080918B
:1005600086030E94DE0084E40E94A10280E00E94D3
:10057000A10261E08F3F41F4809186030E94DE007A
:1005800081E0DF91CF910895809186030E94DE0083
:10059000E3CF80E0F6CF0F931F93CF93C82F8B014B
:1005A000C15030F0F80181918F010E94A102F8CF73
:1005B000CF911F910F910895CF92DF92EF92FF920A
:1005C0000F931F93CF93DF9300D000D0CDB7DEB74A
:1005D000D82EC92E062F7A010E94A802182F882330
:1005E000C9F081E18983CA820B83DC8260E080915B
:1005F00086030E94DE00BE016F5F7F4F84E00E9491
:10060000CB02B701802F0E94CB0261E0809186036C
:100610000E94DE00812F0F900F900F900F90DF91BE
:10062000CF911F910F91FF90EF90DF90CF900895A1
:10063000FF920F931F93CF93DF93D82FF62E8A014B
:100640000E94A802C82F882389F060E08091860369
:100650000E94DE008F2D0E94A102B8018D2F0E9402
:10066000CB0261E0809186030E94DE008C2FDF9137
:10067000CF911F910F91FF900895CF93DF9300D0FA
:100680001F92CDB7DEB719821A821B82AE014F5F6F
:100690005F4F60E283E00E9418030F900F900F906D
:1006A000DF91CF910895CF93DF931F92CDB7DEB73F
:1006B00083E08983AE014F5F5F4F65E181E00E9477
:1006C00018030F90DF91CF9108950F931F93CF934D
:1006D000C82F8B01C15038F080E00E94A102F801C0
:1006E00081938F01F7CFCF911F910F910895CF92F2
:1006F000DF92EF92FF920F931F93CF93DF93CDB7CB
:10070000DEB7A7970FB6F894DEBF0FBECDBF61E08E
:10071000809185030E940C0161E0809185030E9415
:10072000DE0060E0809184030E940C011FB7F89402
:100730008091E602811127C0E8EBF0E08491E4EAC1
:10074000F0E09491E82FF0E0EE0FFF1FE057FF4F2D
:10075000A591B491EC91E92321F461E08AE00E9433
:10076000DE0061E08AE00E940C018CB580618CBDE6
:100770008CB580648CBD61E08DE00E940C0161E06D
:100780008BE00E940C018091E6028F5F8093E6026D
:100790001FBF61E0809186030E940C0161E080919F
:1007A00086030E94DE008CB58F7D8CBD8CB58C7F5E
:1007B00081608CBD8DB58E7F8DBD8CB5837F8CBDEA
:1007C00087E0EFE0F1E0DE01119601900D928A954D
:1007D000E1F761E0809185030E94DE0064E670E04D
:1007E00080E090E00E94620160E0809185030E94B9
:1007F000DE0064E170E080E090E00E94620160E071
:10080000809186030E94DE00BE016F5F7F4F87E00C
:100810000E94CB0261E0809186030E94DE0068ECBA
:1008200070E080E090E00E94620148E050E0FA0150
:10083000E95DFE4FF080FA946A0182E0C80ED11C97
:10084000485D5E4FFA01E0800F2D10E0B601695D52
:100850007E4FA801CE0101960E94AD07AE014F5F09
:100860005F4F6E2D8F2D0E941803A601400F511F60
:100870004D36F1E05F07D8F219821A8281E28B834C
:1008800080E28C8387E28D838BE08E83AE014F5FA5
:100890005F4F63E186E00E94180382E68983AE0120
:1008A0004F5F5F4F61E090E080E00E94DC0280E4F7
:1008B0008983AE014F5F5F4F61E083E090E00E946B
:1008C000DC0288E0898384E18A831B828FE08C8349
:1008D00081E38D831E821F8218861986AE014F5FC9
:1008E0005F4F69E080E090E10E94DC028DE2898345
:1008F00084ED8A8311E01F8F89819A8199A388A34F
:10090000AE01415E5F4F65E080E091E10E94DC0254
:1009100081E88983AE014F5F5F4F61E080E092E143
:100920000E94DC0282E08983AE014F5F5F4F61E08D
:1009300086E092E10E94DC028AE089831A831B82AE
:10094000AE014F5F5F4F63E088E092E10E94DC02FE
:1009500019821A8394E09B838AEA8C831D8222E3A6
:100960002E839F83888719861A861B861C86AE0174
:100970004F5F5F4F6CE08DE092E10E94DC021982D4
:100980001A821B821C821D821E821F821886AE0163
:100990004F5F5F4F68E089E192E10E94DC02809145
:1009A000160190911701A0911801B09119018F8F34
:1009B00098A3A9A3BAA38FE788A3AE01415E5F4FB6
:1009C00064E080E092E20E94DC020E94A802882398
:1009D00021F160E0809186030E94DE0081E00E94A8
:1009E000A10261E0809186030E94DE000E94A802BD
:1009F000882399F060E0809186030E94DE0084E401
:100A00000E94A102BE01615E7F4F89E00E946503E2
:100A100061E0809186030E94DE0080E0A7960FB619
:100A2000F894DEBF0FBECDBFDF91CF911F910F9124
:100A3000FF90EF90DF90CF90089542E050E067EA9A
:100A400072E087EE92E00C949401CF93DF93FC0167
:100A500001900020E9F73197AF01481B590BBC0109
:100A600087EE92E00E949401EC010E941D058C0F1C
:100A70009D1FDF91CF9108951F920F920FB60F9295
:100A800011242F933F938F939F93AF93BF938091A4
:100A9000DE029091DF02A091E002B091E10230917C
:100AA000DD0223E0230F2D3758F50196A11DB11D5E
:100AB0002093DD028093DE029093DF02A093E00298
:100AC000B093E1028091E2029091E302A091E402EE
:100AD000B091E5020196A11DB11D8093E2029093B1
:100AE000E302A093E402B093E502BF91AF919F911E
:100AF0008F913F912F910F900FBE0F901F901895DF
:100B000026E8230F0296A11DB11DD2CF1F920F928E
:100B10000FB60F9211242F933F934F935F936F93D0
:100B20007F938F939F93AF93BF93EF93FF9387EE42
:100B300092E00E941202FF91EF91BF91AF919F91BD
:100B40008F917F916F915F914F913F912F910F9076
:100B50000FBE0F901F9018951F920F920FB60F9215
:100B600011242F938F939F93EF93FF93E091F702BC
:100B7000F091F8028081E091FD02F091FE0282FD89
:100B80001BC09081809100038F5F8F7320910103C0
:100B9000821741F0E0910003F0E0E951FD4F958F9D
:100BA00080930003FF91EF919F918F912F910F9070
:100BB0000FBE0F901F9018958081F4CFE7EEF2E002
:100BC0001382128288EE93E0A0E0B0E084839583E4
:100BD000A683B78389E992E09183808385EC90E0D6
:100BE0009587848784EC90E09787868780EC90E0F7
:100BF000918B808B81EC90E0938B828B82EC90E0E8
:100C0000958B848B86EC90E0978B868B118E128E61
:100C1000138E148EE4E8F3E082E0808389E0818320
:100C20008AE082830895CF93DF93CDB7DEB729970B
:100C30000FB6F894DEBF0FBECDBF789484B5826046
:100C400084BD84B5816084BD85B5826085BD85B570
:100C5000816085BD80916E00816080936E001092EE
:100C60008100809181008260809381008091810069
:100C700081608093810080918000816080938000FA
:100C80008091B10084608093B1008091B000816058
:100C90008093B00080917A00846080937A00809184
:100CA0007A00826080937A0080917A0081608093DC
:100CB0007A0080917A00806880937A001092C10057
:100CC000E091F702F091F80282E08083E091F30274
:100CD000F091F4021082E091F502F091F6028FECAF
:100CE00080831092FF02E091FB02F091FC0286E00B
:100CF0008083E091F902F091FA0280818061808323
:100D0000E091F902F091FA02808188608083E0919D
:100D1000F902F091FA02808180688083E091F90203
:100D2000F091FA0280818F7D80830E947703811188
:100D30000BC08AEA92E00E94250564E670E080E03C
:100D400090E00E946201F1CF88EB92E00E942505BD
:100D500081E08983AE014F5F5F4F64E30E94180317
:100D600060901A0170901B0180901C0120901D0161
:100D700030901E0140901F0190E0E92E90E0F92E86
:100D80002FE0922E30E3B32E82E3A82E87EE92E07E
:100D90000E94D001843509F08EC00E9453039886CA
:100DA000CDB6DEB6AE01485F5F4F61E082E192E111
:100DB0000E94DC025884452D50E0CA0101962DB7EF
:100DC0003EB7281B390B0FB6F8943EBF0FBE2DBFA0
:100DD0000DB71EB70F5F1F4FEDB7FEB7518260E032
:100DE00071E0C80101960E94AD07A80166E681E0A6
:100DF000850D0E9418030FB6F894DEBE0FBECDBE5F
:100E000069827A828B82AE014F5F5F4F63E080E040
:100E100091E00E94DC020E943D031982BA821B828B
:100E20001C82AE014F5F5F4F61E384E00E941803B4
:100E300005EF11E00150110969F0809184030E94CF
:100E4000B500892B49F061E070E080E090E00E94FD
:100E50006201F0CF0E947703A986AE01475F5F4F22
:100E600061E082E192E10E94DC020E945303298248
:100E70003A824B82AE014F5F5F4F63E080E091E0CA
:100E80000E94DC020E943D0387E0E0E2F1E0DE0127
:100E9000119601900D928A95E1F7AE014F5F5F4F79
:100EA00062E387E00E94180381E08093DC0285EC16
:100EB00092E00E9425058091DC028130E1F580916D
:100EC00084030E94B500892BB1F51092DC020E94C8
:100ED0003D030E94A80210E08823C9F060E08091E1
:100EE00086030E94DE0087E70E94A102BE016F5FB9
:100EF0007F4F81E00E94650368EC72E089810E9467
:100F0000650361E0809186030E94DE0019810E94E2
:100F10005303412F50E068EC72E087EE92E00E94AC
:100F200094010E941D0581E08983AE014F5F5F4FF0
:100F300064E30E941803E114F10409F427CF0E942E
:100F4000FE01882309F420CF0E9400001DCFEE0F80
:100F5000FF1F0590F491E02D0994FB01DC0102C014
:100F600001900D9241505040D8F70895F894FFCF6A
:100F7000737777784142434445464748496D0002BC
:100F8000010001C9C3800800003D012000031800D2
:100F9000000000000008080702010001C9C3800822
:100FA00013000000000000000611000200520005BE
:100FB0001100010360051101010000081102040085
:100FC000000000000D111009000814000F3100008E
:100FD0000000091111050001B42B000005111201D8
:100FE00000840811120403FFFF00021011120C0804
:100FF0000000003030000704800000001011120CC7
:101000001400000000000000000000000010111299
:101010000C200000000000000000000000000D1186
:1010200012092C0000000000000000001011200C2C
:1010300000020007002EE001C9C380000005112056
:10104000010CD20C112008180180080380007020C8
:101050000D11200922030D00A7C6005402C20B1176
:1010600020072C0436800330AF800511200135E2C3
:101070000D1120093811ABAB0002FFFF002B0D1141
:10108000200942A402D68300AD0180FF0511200192
:101090004C00051120014E4005112001510A10118C
:1010A000210C00FFC4307FF5B5B8DE0517160C1013
:1010B00011210C0C030015FF0000FFC4307FF5B5B3
:1010C0001011210C18B8DE0517160C030015FF00CF
:1010D000000811220400087F003D0B112307002C9B
:1010E0000E0B040C73031011300C00000000000004
:1010F000000000000000000C11400800380E666679
:10110000444420FE000000000034029401C101812B
:1011100002F201D001E4010D0A00496E6974204613
:1011200041494C4C4C4C2100696E697420537563E5
:0811300063657373007478001D
:107E0000112484B714BE81FFF0D085E080938100F7
:107E100082E08093C00088E18093C10086E0809377
:107E2000C20080E18093C4008EE0C9D0259A86E02C
:107E300020E33CEF91E0309385002093840096BBD3
:107E4000B09BFECF1D9AA8958150A9F7CC24DD24C4
:107E500088248394B5E0AB2EA1E19A2EF3E0BF2EE7
:107E6000A2D0813461F49FD0082FAFD0023811F036
:107E7000013811F484E001C083E08DD089C08234E0
:107E800011F484E103C0853419F485E0A6D080C0E4
:107E9000853579F488D0E82EFF2485D0082F10E0AE
:107EA000102F00270E291F29000F111F8ED06801E7
:107EB0006FC0863521F484E090D080E0DECF843638
:107EC00009F040C070D06FD0082F6DD080E0C81688
:107ED00080E7D80618F4F601B7BEE895C0E0D1E017
:107EE00062D089930C17E1F7F0E0CF16F0E7DF06D8
:107EF00018F0F601B7BEE89568D007B600FCFDCFD4
:107F0000A601A0E0B1E02C9130E011968C91119780
:107F100090E0982F8827822B932B1296FA010C0160
:107F200087BEE89511244E5F5F4FF1E0A038BF0790
:107F300051F7F601A7BEE89507B600FCFDCF97BE46
:107F4000E89526C08437B1F42ED02DD0F82E2BD052
:107F50003CD0F601EF2C8F010F5F1F4F84911BD097
:107F6000EA94F801C1F70894C11CD11CFA94CF0C13
:107F7000D11C0EC0853739F428D08EE10CD085E9AC
:107F80000AD08FE07ACF813511F488E018D01DD067
:107F900080E101D065CF982F8091C00085FFFCCF94
:107FA0009093C60008958091C00087FFFCCF809118
:107FB000C00084FD01C0A8958091C6000895E0E648
:107FC000F0E098E1908380830895EDDF803219F02E
:107FD00088E0F5DFFFCF84E1DECF1F93182FE3DFCA
:107FE0001150E9F7F2DF1F91089580E0E8DFEE27F6
:047FF000FF270994CA
:027FFE00040479
:00000001FF
